:100000000C94DA020C9402030C9402030C94DB129D
:100010000C94DB120C94DB120C9402030C9402037C
:100020000C9402030C9405120C9402030C9402032A
:100030000C9402030C9402030C9402030C9402032C
:100040000C94BB110C9402030C9489110C94631151
:100050000C9402030C9402030C9402030C9402030C
:100060000C9402030C9402034E414E494E495459DC
:10007000494E46CDCCCC3D0AD7233C17B7D1387773
:10008000CC2B329595E6241FB14F0A000020410089
:1000900000C84200401C4620BCBE4CCA1B0E5AAED3
:1000A000C59D7400407A10F35A00A0724E180900E2
:1000B00010A5D4E80000E87648170000E40B5402CD
:1000C0000000CA9A3B000000E1F505000080969808
:1000D00000000040420F000000A086010000001058
:1000E0002700000000E8030000000064000000009A
:1000F000000A00000000000100000000002C76D87B
:1001000088DC674F0823DFC1DFAE59E1B1B796E560
:10011000E3E453C63AE651997696E8E6C28426EBC4
:10012000898C9B62ED407C6FFCEFBC9C9F40F2BAD7
:10013000A56FA5F490055A2AF75C936B6CF9676D6F
:10014000C11BFCE0E40D47FEF520E6B500D0ED90C4
:100150002E0300943577050080841E080000204E91
:100160000A000000C80C333333330F986E1283112A
:1001700041EF8D2114893BE65516CFFEE6DB18D101
:10018000844B381BF77C1D901DA4BBE424203284D3
:10019000725E228100C9F124ECA1E53D2763646908
:1001A0006E6F70737578585B00506C6163696E6731
:1001B0002064656661756C742073657474696E671C
:1001C0007320696E20454550524F4D003031323317
:1001D00034353637383941004348414E47454D455F
:1001E00000808183848687898A8C8D8F91929495F3
:1001F00097989A9B9D9EA0A1A3A4A6A7A9AAACADDF
:10020000AFB0B2B3B4B6B7B9BABBBDBEBFC1C2C35B
:10021000C5C6C7C9CACBCCCECFD0D1D2D4D5D6D7FC
:10022000D8D9DADBDDDEDFE0E1E2E3E4E5E6E6E7CC
:10023000E8E9EAEBECECEDEEEFF0F0F1F2F2F3F4DA
:10024000F4F5F5F6F7F7F8F8F9F9F9FAFAFBFBFB2C
:10025000FCFCFCFDFDFDFDFEFEFEFEFEFEFEFEFEC8
:10026000FEFFFEFEFEFEFEFEFEFEFEFEFDFDFDFDB1
:10027000FCFCFCFBFBFBFAFAF9F9F9F8F8F7F7F6E6
:10028000F5F5F4F4F3F2F2F1F0F0EFEEEDECECEB67
:10029000EAE9E8E7E6E6E5E4E3E2E1E0DFDEDDDB2C
:1002A000DAD9D8D7D6D5D4D2D1D0CFCECCCBCAC933
:1002B000C7C6C5C3C2C1BFBEBDBBBAB9B7B6B4B36A
:1002C000B2B0AFADACAAA9A7A6A4A3A1A09E9D9BC6
:1002D0009A9897959492918F8D8C8A89878684833A
:1002E00081807E7C7B797876757372706E6D6B6AB7
:1002F0006867656462615F5E5C5B5958565553522E
:10030000504F4D4C4B49484645444241403E3D3C90
:100310003A39383635343331302F2E2D2B2A2928CF
:10032000272625242221201F1E1D1C1B1A191918DF
:100330001716151413131211100F0F0E0D0D0C0BB1
:100340000B0A0A090808070706060605050404043F
:100350000303030202020201010101010101010183
:100360000101010101010101010101010202020279
:100370000303030404040505060606070708080925
:100380000A0A0B0B0C0D0D0E0F0F10111213131484
:100390001516171819191A1B1C1D1E1F202122249F
:1003A00025262728292A2B2D2E2F30313334353678
:1003B00038393A3C3D3E40414244454648494B4C21
:1003C0004D4F505253555658595B5C5E5F616264A5
:1003D0006567686A6B6D6E707273757678797B7C11
:1003E0007E435554444F574E204F4E00005EBCE2B2
:1003F000613FDD83C29C7E20A3FD1F41009D23BE83
:1004000046DB65F88C11AF32CA57E9740000000072
:10041000240027002A002020202045787465726E71
:10042000616C003C2D2D20494E5445524E414C00EC
:1004300053746F726564206E65772044533138427F
:100440003230206164647265737300204453313824
:100450004232302773206F6E2062757300467265DA
:1004600065206D656D6F7279203D200056312E320A
:100470003100504954535633204156522046697238
:100480006D7761726520004750533D0043555444D9
:100490004F574E204F464600535344563D004C4F55
:1004A00052413D53534456004C4F52413D0042612E
:1004B00074743D0054656D70002D25690070692DC0
:1004C000696E2D7468652D736B792E636F6D0053A3
:1004D000656E642041505253204D6F646520636FF8
:1004E0006D6D616E640053656E64204150525320FF
:1004F0004672657120636F6D6D616E640020736577
:10050000636F6E6473004E657874207061636B6511
:100510007420696E200053656E64696E67204150D7
:100520005253205061636B65740053657474696E37
:1005300067204150525320706172616D657465721D
:10054000730000000008000201000003040700001F
:10055000000000000000535344563D0053534456DE
:100560003D00535344563D0056312E32310056451E
:10057000523D00000000002300260029000000007A
:1005800000250028002B00040404040404040402D1
:100590000202020202030303030303010204081020
:1005A00020408001020408102001020408102000ED
:1005B0005313292311241FBECFEFD8E0DEBFCDBFD8
:1005C00012E0A0E0B1E0EAE9F2E602C005900D9287
:1005D000A63DB107D9F727E0A6EDB2E001C01D9214
:1005E000AC39B207E1F712E0C9EDD2E004C02197BF
:1005F000FE010E94732DC83DD107C9F70E94431424
:100600000C9440310C9400008091BD05882359F072
:10061000E091BC059FEF980F9093BD05E81BF0E0BB
:10062000E254FA4F82810895AF92BF92CF92DF9247
:10063000EF92FF920F931F93CF93DF936C017B0197
:100640008B01040F151FEB015E01AE18BF08C01728
:10065000D10759F06991D601ED91FC910190F0819B
:10066000E02DC6010995892B79F7C501DF91CF915E
:100670001F910F91FF90EF90DF90CF90BF90AF90C0
:100680000895FC01538D448D252F30E0842F90E098
:10069000821B930B541710F0CF960895019708957D
:1006A000FC01918D828D981761F0A28DAE0FBF2F46
:1006B000B11D5D968C91928D9F5F9F73928F90E09C
:1006C00008958FEF9FEF0895FC01918D828D98170B
:1006D00031F0828DE80FF11D858D90E008958FEF48
:1006E0009FEF0895FC01918D228D892F90E0805C11
:1006F0009F4F821B91098F739927089582EB96E093
:100700000E94720321E0892B09F420E0822F0895D2
:1007100080E090E0892B29F00E947E0381110C94E7
:1007200000000895FC01A48DA80FB92FB11DA35A94
:10073000BF4F2C91848D90E001968F739927848F01
:10074000A689B7892C93A089B1898C918370806424
:100750008C93938D848D981306C00288F389E02DC5
:1007600080818F7D80830895EF92FF920F931F9376
:10077000CF93DF93EC0181E0888F9B8D8C8D981354
:100780001AC0E889F989808185FF15C09FB7F89460
:10079000EE89FF896083E889F989808183708064AC
:1007A00080839FBF81E090E0DF91CF911F910F91F7
:1007B000FF90EF900895F62E0B8D10E00F5F1F4F06
:1007C0000F731127E02E8C8D8E110CC00FB607FC15
:1007D000FACFE889F989808185FFF5CFCE010E94A3
:1007E0009203F1CFEB8DEC0FFD2FF11DE35AFF4F7C
:1007F000F0829FB7F8940B8FEA89FB898081806231
:10080000CFCF0F931F93CF93DF938C01D0E0C0E045
:10081000F801EC0FFD1F6491662341F082EB96E036
:100820000E94B403892B11F02196F2CFCE01DF9103
:10083000CF911F910F910895682F82EB96E00C9451
:10084000B403CF93DF93EC01888D8823B9F0AA8994
:10085000BB89E889F9898C9185FD03C0808186FD7B
:100860000DC00FB607FCF7CF8C9185FFF2CF8081CA
:1008700085FFEDCFCE010E949203E9CFDF91CF91AA
:100880000895833081F028F4813099F08230A9F006
:1008900008958730A9F08830C9F08430B1F4809190
:1008A00080008F7D03C0809180008F7780938000CF
:1008B000089584B58F7784BD089584B58F7DFBCF6F
:1008C0008091B0008F778093B00008958091B00040
:1008D0008F7DF9CFCF93DF93E7E4F5E08491E0EAF1
:1008E000F5E0D491ECE8F5E0C491CC23A1F08111BE
:1008F0000E944104EC2FF0E0EE0FFF1FED58FA4F7D
:10090000A591B491EC91ED2381E090E009F480E0B1
:10091000DF91CF91089580E090E0FACF1F93CF93BD
:10092000DF93282F30E0F901EE5BFA4F8491F90153
:10093000E556FA4FD491F901E957FA4FC491CC2307
:10094000A9F0162F81110E944104EC2FF0E0EE0F68
:10095000FF1FE358FA4FA591B4918FB7F894EC912B
:10096000111108C0D095DE23DC938FBFDF91CF91AA
:100970001F910895DE2BF8CFCF93DF9390E0FC0119
:10098000E556FA4F249189579A4FFC0184918823A8
:10099000D1F090E0880F991FFC01E45FFB4FA59117
:1009A000B491FC01E358FA4FC591D49161110EC086
:1009B0009FB7F8948C91E22FE0958E238C93288139
:1009C000E223E8839FBFDF91CF9108958FB7F8941A
:1009D000EC91E22BEC938FBFF6CF3FB7F894809168
:1009E000E9029091EA02A091EB02B091EC0226B5E7
:1009F000A89B05C02F3F19F00196A11DB11D3FBF57
:100A0000BA2FA92F982F8827BC01CD01620F711D25
:100A1000811D911D43E0660F771F881F991F4A951E
:100A2000D1F708958F929F92AF92BF92CF92DF92AB
:100A3000EF92FF926B017C010E94ED044B015C017F
:100A4000C114D104E104F104B9F00E94ED04681965
:100A500079098A099B09683E73408105910580F3F5
:100A600021E0C21AD108E108F10888EE880E83E07F
:100A7000981EA11CB11CE4CFFF90EF90DF90CF90A7
:100A8000BF90AF909F908F9008952FB7F89460918A
:100A9000E5027091E6028091E7029091E8022FBF93
:100AA00008950E94450584E98093BC008091BC00B4
:100AB00084FDFCCF80E00895CF938093BB000E941B
:100AC000450584E88093BC008091BC0087FFFCCF83
:100AD0008091B900887FC0E0883251F0C091B900A0
:100AE000C87F8091B900887F803329F40E94510526
:100AF0008C2FCF9108951092BC0084E48093BC00A9
:100B0000F7CFCF938093BB000E94450584E8809384
:100B1000BC008091BC0087FFFCCF8091B900887F2A
:100B20008831E9F08091B900887F8034C1F0C091AC
:100B3000B900C87F8091B900887F803269F08091C8
:100B4000B900887F883441F01092BC0084E480931F
:100B5000BC008C2FCF9108950E945105FACFC0E0C0
:100B6000F8CF0E94450584EA8093BC008091BC00C8
:100B700087FFFCCF8091B900887F8830B9F08091E1
:100B8000B900887F803191F08091B900887F8833E7
:100B900049F48091B900887F1092BC0094E490934E
:100BA000BC0008958091B900887F089580E0089581
:100BB000CF93C82F0E94450584ECC11101C084E881
:100BC0008093BC008091BC0087FFFCCF8091B9006E
:100BD000887F883351F48091B900887F1092BC00DF
:100BE00094E49093BC00CF9108958091B900887FE0
:100BF000FACF0F931F93CF93DF93C82F162FD42FC5
:100C00001092BD05411101C0D1E08FEF8D0F80938F
:100C1000BF051092BE050E94B1058093BE058111EB
:100C20003CC0CC0F8C2F0E9481058093BE05882389
:100C300021F0813091F582E030C0812F0E945C0567
:100C40008093BE05882321F0813039F583E025C0EB
:100C50000E94B1058093BE05882321F08130E9F41C
:100C600084E01BC081E08C0F0E9481058093BE054B
:100C7000882321F0813089F485E00FC000EC15E075
:100C8000C0E08091BF058C1325C080E00E94D8058C
:100C90008093BE05813031F486E0DF91CF911F91C2
:100CA0000F9108958835C9F78091BB00F8018193B1
:100CB0008F01CF5FC093BD05C093BC05DC13E1CFAE
:100CC0000E9451058093BE05882339F3813029F7AE
:100CD00087E0E3CF81E00E94D8058093BE05813094
:100CE000D9F2803509F3D9CFDC0180E0615090F072
:100CF0009D919827E92FEF70F0E0E451FC4F24918B
:100D0000E92FE295EF70F0E0E450FC4FE491822F80
:100D10008E27ECCF0895DC012C911196ED91FC917A
:100D2000F8948181822B81839281322F3095932395
:100D3000928382E090E00197F1F7818183238183A0
:100D400080E190E00197F1F790817894E6E6F0E099
:100D50003197F1F7922381E009F480E00895FC01D6
:100D600090810180F281E02D292F209560FF14C031
:100D7000F8948281822382838181892B8183A0E1FF
:100D8000B0E01197F1F78281982B928378948AE6EC
:100D900090E00197F1F70895F8948281822382838D
:100DA0008181892B8183AEE7B0E01197F1F78281D1
:100DB000982B9283789486E090E0EBCFDF92EF92CD
:100DC000FF920F931F93CF93DF93EC01D62EE42E67
:100DD00008E010E0FF24F39461E08D2D8F2109F4E9
:100DE00060E0CE010E94AF06FF0C01501109A1F78F
:100DF000E11010C0F894E981FA8191818881809591
:100E000089238183E981FA81928188818095892370
:100E100082837894DF91CF911F910F91FF90EF9093
:100E2000DF900895EF92FF920F931F93CF93DF937C
:100E30008C017B0140E065E50E94DE06E70188E069
:100E4000E80EF11C699140E0C8010E94DE06CE1553
:100E5000DF05C1F7DF91CF911F910F91FF90EF90C8
:100E60000895CF93DF93FB01DC01C081D18188819C
:100E7000882349F08F3239F0CE0101969183808327
:100E800088818D93F2CF1C92A081B1818C918823AF
:100E900019F01196B183A083DF91CF9108958EBD93
:100EA00000000DB407FEFDCF8EB50895CF93DF93FC
:100EB000D82FC62F60E08AE00E948E048D2F8068B4
:100EC0000E944F078C2F0E944F0761E08AE0DF915C
:100ED000CF910C948E04CF9390910401981731F028
:100EE000C82F813879F120F4803829F1CF91089505
:100EF000833861F08538D1F760E089E00E945607B9
:100F000063E28CE00E94560765E809C060E08CE06F
:100F10000E94560768E889E00E94560763E881E06E
:100F20000E945607C09304016AE070E080E090E000
:100F3000CF910C94120560E881E00E945607C0939F
:100F40000401D4CF61E8EBCFCF93C82F60E08AE0F3
:100F50000E948E048C2F0E944F0780E00E944F0752
:100F6000C82F61E08AE00E948E048C2FCF910895F3
:100F7000CF92DF92EF92FF92CF9360E881E00E94E0
:100F8000560720E030E049ED5AE460910A0670917E
:100F90000B0680910C0690910D060E94BB2A20E062
:100FA00030E049ED53E40E94992C0E94122D6B0110
:100FB0007C01B7018827992786E00E945607992768
:100FC0008F2D7E2D6D2D87E00E9456076C2D88E0B9
:100FD0000E94560760910E06C0E06111CFEF80912C
:100FE0000F06682B80911006682B8DE10E94560732
:100FF0006091110664608EE10E94560760911206AE
:10100000646086E20E94560781E30E94A407887FFD
:101010009091110663E0903609F465E0682B81E356
:101020000E945607809111066AE0803609F46CE050
:1010300087E30E9456076C2F82E20E9456076C2FAE
:1010400083E10E94560760E480E40E94560760E056
:1010500081E40E94560781E8CF91FF90EF90DF90E6
:10106000CF900C946B07EF92FF920F931F93CF9347
:10107000DF937C01EB010E94450560938E03709322
:101080008F03809390039093910310928A031092A0
:101090008B0310928C0310928D030E94B80781E895
:1010A0000E946B0760E08EE00E94560760E08DE0D2
:1010B0000E94560760E08AE00E948E0480E80E9449
:1010C0004F078701C8018E199F098C179D0734F4BB
:1010D000F80181918F010E944F07F4CF61E08AE00F
:1010E0000E948E0480910E06882311F0CFEFD0E08D
:1010F0006C2F82E20E94560783E80E946B0782E011
:1011000090E09093930380939203DF91CF911F918E
:101110000F91FF90EF900895EF92FF920F931F931E
:10112000CF93DF938C01F62EFC0182818093FA022B
:1011300083818093F9021092BE050E94B1058093CD
:10114000BE0581111FC084E80E9481058093BE0501
:10115000811118C00E945C058093BE05811112C0E8
:10116000E02EC02FD12F89910E945C058093BE058F
:10117000811108C08C2F8E198F15A8F30E9451057C
:101180008093BE05DF91CF911F910F91FF90EF905B
:101190000895CF93DF93CDB7DEB760970FB6F8947D
:1011A000DEBF0FBECDBF90E1EDE0F1E0DE011196B4
:1011B00001900D929A95E1F78887FE0133969E0182
:1011C000215F3F4F90E080E04191840F980FE2173C
:1011D000F307D1F78F87988B60E170E0CE0101961D
:1011E0000E948C0860960FB6F894DEBF0FBECDBF8C
:1011F000DF91CF910895CF93DF93DC01FC0186E06E
:1012000020E4EB019881992391F06F5F7F4F990F54
:101210009083815031968111F4CF405D440F169632
:101220004C931697CD010796DF91CF9108952083B7
:10123000F0CF8F929F92AF92BF92EF92FF920F9357
:101240001F93CF93DF93C62F8C01060F111DF8015A
:101250001082D62F78018BE5882E912CA12CB12CF1
:10126000B901CA01A50194010E94FB2B6F5DF70132
:1012700062937F01D150A1F7C1508C2F90E08095EF
:101280009095800F911FDF91CF911F910F91FF904B
:10129000EF90BF90AF909F908F90089590ED980F32
:1012A0009A3028F4082E000C990BC09708959FEBF4
:1012B000980F963028F4082E000C990BC7970895C4
:1012C0009FE9980F963030F4082E000C990B875543
:1012D0009109089580E008952091F0023091F10283
:1012E0002817390771F49091EE028091EF02981758
:1012F00041F0E091EE02F0E0EA52FD4F808190E093
:1013000008958FEF9FEF08950895EF92FF920F9346
:101310001F93CF93DF93DC015C96ED90FC905D977B
:10132000E114F10479F481E090E013969C938E939C
:10133000129790E080E0DF91CF911F910F91FF9085
:10134000EF9008955196ED91FC91529750968C91A3
:101350005097982F90950FB75E962C915E97122F0D
:10136000127021FD6095F8942081112319F1282B2A
:101370002083E7012197F1F728E0462F50E03081E4
:1013800060FF1AC0382B3083E7012197F1F7BA01CB
:1013900075956795215089F7112381F08081892304
:1013A00080830FBF5C968D919C910197F1F781E04E
:1013B00090E0C1CF2923DCCF3923E5CF9081892B61
:1013C000EFCF2091F0023091F1022817390769F42C
:1013D0008091EF022091EE0290E00496821B910929
:1013E00064E070E00E945F2D089590E080E0089531
:1013F0002091F0023091F10228173907B9F4909149
:10140000EE028091EF02981789F0E091EE02F0E091
:10141000EA52FD4F80812091EE0230E02F5F3F4F76
:10142000237033272093EE0290E008958FEF9FEF13
:10143000089590E080E00895FC0190810180F281A0
:10144000E02DF8948181292F20958223818378943F
:101450003DE7315011F180818923D9F3F8948281DD
:10146000822382838181892B81837894ACEBB3E0E2
:101470001197F1F7F894818182238183A8E8B0E085
:101480001197F1F78081982381E009F080E078944A
:10149000E0E3F3E03197F1F7089580E008958F924B
:1014A0009F92AF92BF92CF92DF92EF92FF920F93F3
:1014B0001F93CF93DF938C01EB018091550790919F
:1014C00056070E941C0A811102C090E03EC0B8017C
:1014D00080915507909156070E94120740E06EEBED
:1014E00080915507909156070E94DE068E015E019D
:1014F00089E0A80EB11C809055079090560788E0AF
:10150000C82ED12CF12CEE24E394C4010E948B064A
:101510008111FE28EE0CE1E0CE1AD108B1F7F801F6
:10152000F1928F01EA15FB0531F7809155079091F3
:1015300056070E941C0A813041F668E0CE010E94E5
:10154000740691E028852813C0CF892FDF91CF91B1
:101550001F910F91FF90EF90DF90CF90BF90AF90D1
:101560009F908F900895CF93DF93CDB7DEB72997E3
:101570000FB6F894DEBF0FBECDBFBE016F5F7F4FC9
:101580000E944F0A882331F08D818F33A9F020F417
:101590008F31A1F080E007C08F3521F08F37D1F770
:1015A0008CE001C08BE029960FB6F894DEBF0FBE29
:1015B000CDBFDF91CF9108958AE0F5CF89E0F3CFD9
:1015C000BF92CF92DF92EF92FF920F931F93CF9330
:1015D000DF93EC01B62EC72E8D85811105C0CE019B
:1015E0000E941C0A81110EC01B861D861C8680E08D
:1015F000DF91CF911F910F91FF90EF90DF90CF90EF
:10160000BF90089540E060EFCE010E94DE0601E049
:10161000E12CD12C11E0CE010E948B06F82ECE01D8
:101620000E948B0691E0F91218C0813099F51134AF
:10163000D8F2DB86D11002C081E08D878B818823B0
:1016400099F22396EB2DFC2DCF0108962991219339
:10165000E817F907D9F781E0CBCFEE2DF0E0F812CB
:101660000FC08B851817A0F4DE01AE0FBF1F1396B5
:101670008C91802379F4F12C193008F41C87D12E39
:10168000EC0FFD1F8381902F9095892383830AC0DF
:101690008113F1CFFE01EE0DF11D8381802B838339
:1016A000FF24F3946F2DCE010E94AF061F5F000F41
:1016B00011F4E39401E087E08E1508F0ACCFB7CFCA
:1016C000FF920F931F93CF93DF938C01F62EE0913F
:1016D0005507F091560713861586148612861186D3
:1016E000108617821682158214821382C0E0B80118
:1016F00080915507909156070E94E00AD82F8823C1
:1017000029F0FC1629F0CF5FFC1688F7D0E008C05E
:1017100067E0C8010E947406F80197818913F3CF2E
:101720008D2FDF91CF911F910F91FF9008951F93FF
:10173000CF93DF93CDB7DEB71D8540E06BE771E057
:101740008EE496E00E94FB08488560E276E00E9405
:10175000FB082C85222329F041E062E871E00E9419
:10176000FB08112329F0412F68E871E00E94FB0873
:10177000FC0122912160208323E0DC012C93FC01F9
:10178000329620EF11962C9360EB76E06E1B7F0B68
:101790009E01205F3F4F4E855F85CF010E94252E21
:1017A000AEE4B6E08FEF9FEFFD012D91222391F083
:1017B0008227082E8295807F8025092E982F82957A
:1017C0008F700826869598278927880F880F880F9D
:1017D0008025EACF80958083892F809581838EE450
:1017E00096E090934D0680934C06EC54F640E093BF
:1017F0004B0680917000816080937000DF91CF91E3
:101800001F910895FB0101900020E9F73197AF0186
:10181000461B570BDC01ED91FC910280F381E02D1A
:101820000994CF93DF930E940104EC0164E472E019
:1018300082EB96E00E94020C8C0F9D1FDF91CF91EE
:101840000895CF92DF92EF92FF926B017C0181EEBF
:1018500093E00E94110C61E081E10E948E040E94DD
:101860004505C60ED71EE81EF91EC0928403D0920D
:101870008503E0928603F0928703FF90EF90DF905C
:10188000CF9008958F929F92AF92BF920F931F9324
:10189000CF93DF93CDB7DEB7A1970FB6F894DEBF35
:1018A0000FBECDBF19A2423008F44AE08E010F5D91
:1018B0001F4F842E912CB12CA12CA50194010E94C4
:1018C000FB2BE62FB901CA01EA3004F5E05DD8012F
:1018D000EE938D01232B242B252B79F790E080E0CC
:1018E000109729F0BD0182EB96E00E94020CA196B0
:1018F0000FB6F894DEBF0FBECDBFDF91CF911F9121
:101900000F91BF90AF909F908F900895E95CDFCFCB
:10191000CF92DF92EF92FF92CF93DF9397FF19C0A0
:101920006B017C018DE20E941C04EC016627772785
:10193000CB016C197D098E099F094AE00E94420C77
:101940008C0F9D1FDF91CF91FF90EF90DF90CF9094
:1019500008954AE0DF91CF91FF90EF90DF90CF9014
:101960000C94420CCF93DF93BC0190E080E04AE0FE
:101970000E94420CEC0164E472E082EB96E00E946B
:10198000020C8C0F9D1FDF91CF910895CF93DF93B1
:10199000BC01990F880B990B0E94880CEC0164E440
:1019A00072E082EB96E00E94020C8C0F9D1FDF918B
:1019B000CF9108954F925F926F927F928F929F92F4
:1019C000AF92BF92CF92DF92EF92FF92CF936B01D3
:1019D0007C01AC019B010E94462D6EE871E08111F3
:1019E00026C046015701E894B7F82FEF3FEF4FE7C5
:1019F0005FE7C501B4010E94462D81110CC02FEF95
:101A00003FEF4FE75FE7C501B4010E94552A62E945
:101A100071E0181664F02FEF3FEF4FE75FE4C70166
:101A2000B6010E94412D18169CF466E971E082EB24
:101A300096E0CF91FF90EF90DF90CF90BF90AF9066
:101A40009F908F907F906F905F904F900C94020CBE
:101A50002FEF3FEF4FE75FECC701B6010E94552A19
:101A600087FDE3CF20E030E0A901C701B6010E9465
:101A7000552AB12CA12C87FF08C08DE20E941C04BE
:101A80005C01F7FAF094F7F8F0942BEA35EC47EAAA
:101A900056E3C701B6010E942D2C2B013C010E9488
:101AA000122D6B017C010E945A2A9B01AC01C301DB
:101AB000B2010E942C2C2B013C014AE0C701B60167
:101AC0000E94420C7C01EA0CFB1C8EE20E941C046A
:101AD000E80EF91EC6E0C15019F120E030E040E206
:101AE00051E4C301B2010E94BB2A2B013C010E94B8
:101AF000122D4B01B12CA12C4AE0C501B4010E946A
:101B0000420CE80EF91EC501B4010E945A2A9B013D
:101B1000AC01C301B2010E942C2C2B013C01DBCF94
:101B2000C701CF91FF90EF90DF90CF90BF90AF9023
:101B30009F908F907F906F905F904F900895CF937C
:101B4000DF93BC0182EB96E00E94020CEC0164E49E
:101B500072E082EB96E00E94020C8C0F9D1FDF91D9
:101B6000CF9108950F931F93CF93DF9364E490E098
:101B700080E00E94842B63E481E090E00E94842B4B
:101B800000EE15E0C2E0D0E0F80161918F01CE01D6
:101B90000E94842B2196CD36D105B1F7DF91CF91EC
:101BA0001F910F910895CF9368ED71E080EE95E05D
:101BB0000E94E1236CEC71E080EF95E00E94E1234C
:101BC000E0EEF5E080ED97E091A780A74DEC5CE1B9
:101BD00069ED73E442A753A764A775A714AA13AAD3
:101BE0002FEF25ABC1E0C6A722E027A720E320AB5B
:101BF00020E621AB12AA24E030E037AB26AB28E088
:101C000030E031AF20AF93AF82AF8DEC9CECA0E120
:101C1000B3E484AF95AFA6AFB7AF66E472E080E2FD
:101C200096E00E949A2D109227068CED95E09093F5
:101C3000290680932806C0932A0684E190E09093B9
:101C40002C0680932B06C0932D0610922E06109220
:101C50002F0689EA91E00E94110CCF910C94B20DED
:101C6000CF92DF92EF92FF920F931F93CF93DF9368
:101C700080917705873439F580917805803591F426
:101C800089E795E00E94C3238093080183EA91E0ED
:101C9000DF91CF911F910F91FF90EF90DF90CF9048
:101CA0000C949F0D863409F08FC289E795E00E945D
:101CB000C32380342FE1920708F086C2909309066F
:101CC00080930806E3CF833409F06DC080917805D6
:101CD0008834B9F481E090917905913309F080E07E
:101CE000809375050E9445056053784F8F4F9F4F35
:101CF00060937105709372058093730590937405DA
:101D0000C5CF803599F489E795E0FC01019000206A
:101D1000E9F7CF018A579540409708F055C269E727
:101D200075E080EE95E00E949A2DB0CF863489F45C
:101D300089E795E0FC0101900020E9F7CF018A577F
:101D40009540489708F040C269E775E080EF95E05C
:101D5000EACF823519F40E94D30D98CF833519F458
:101D60000E94B20D93CF863549F48EE695E00E942D
:101D7000010488E695E00E94110C88CF833449F471
:101D800089E795E00E94C323909331068093300643
:101D90007DCF843509F018C289E795E00E94C323FE
:101DA0008093320673CF8C3409F09EC08091780501
:101DB000863409F589E795E00E94BF236B017C0119
:101DC00020E030E048EC53E40E94412D87FDFCC147
:101DD00020E030E04AE754E4C701B6010E94552AEA
:101DE00087FFF2C1C0920A06D0920B06E0920C0661
:101DF000F0920D064BCF833581F489E795E00E9480
:101E0000C3239C01265031092730310508F0DCC17D
:101E10008295807F8093110639CF893459F489E700
:101E200095E00E94C32321E0892B09F420E0209350
:101E30000E062CCF853481F489E795E00E94C323F8
:101E40009C01255031092430310508F0BDC1845072
:101E5000880F80930F061ACF823469F489E795E0E2
:101E60000E94C3238A30910508F0AEC18295807F1D
:101E7000809310060BCF8C3461F489E795E00E94C3
:101E8000C323892B21F088E080931206FFCE80E0E7
:101E9000FBCF843569F489E795E00E94C3238D3335
:101EA000910508F091C19093140680931306EECE2D
:101EB0008F3471F489E795E00E94C3239C012F5F62
:101EC0003F4F2D33310508F07FC180931506DECEDC
:101ED000853509F079C140E150E069E775E083E3B9
:101EE00096E00E94AF2DD2CE813409F081C080915E
:101EF0007805803589F489E795E0FC0101900020A0
:101F0000E9F7CF018A579540079708F05DC169E767
:101F100075E080E296E007CF863411F589E795E019
:101F20000E94BF236B017C0120E030E046E053E4D7
:101F30000E94412D87FD48C120E030E04EE253E48D
:101F4000C701B6010E94552A18160CF43DC1C09273
:101F50001C06D0921D06E0921E06F0921F0696CE39
:101F6000833559F489E795E00E94C3238F309105AA
:101F700008F02AC18093270689CE813449F489E785
:101F800095E00E94C32390932906809328067ECE75
:101F9000873539F489E795E00E94C32380932A06A8
:101FA00075CE893449F489E795E00E94C323909364
:101FB0002C0680932B066ACE823539F489E795E0AA
:101FC0000E94C32380932E0661CE8D3439F489E7B5
:101FD00095E00E94C32380932D0658CE843509F0E6
:101FE000F3C089E795E00E94C32380932F064ECE6D
:101FF000833509F082C080917805833429F41092EA
:10200000700510926F0542CE803571F5C0916F0555
:10201000D091700589E7E82E85E0F82E11E0DD24E7
:10202000D394F70181917F01882391F00E944E099A
:10203000112339F0082F0295007FFD2DF11B1F2F72
:10204000F0CF080FFE01E159FB4F00832196F5CF39
:10205000D0937005C0936F0582E695E00E9401045D
:10206000CE010E94B20C12CE8234C1F4C0916F0531
:10207000D0917005E9E7F5E0DE01A159BB4F89E990
:1020800095E021912D938E179F07D9F7A096D093B5
:102090007005C0936F058CE595E0E0CF833549F47A
:1020A00086E595E00E94010480916F05909170058E
:1020B000D8CF893409F088C08AE196E09F938F9346
:1020C000809119068F93809118068F9386E196E090
:1020D0009F938F938AE991E09F938F9389E795E08F
:1020E0009F938F930E940C2E8DB79EB70A960FB6C2
:1020F000F8949EBF0FBE8DBFC9CD863409F064C071
:10210000C0917805C13469F489E795E00E94BF2346
:1021100060935704709358048093590490935A0421
:10212000B5CDCF3469F489E795E00E94BF23609371
:102130005304709354048093550490935604A6CD91
:10214000C43569F489E795E00E94BF2360933C049D
:1021500070933D0480933E0490933F0497CDC73421
:1021600069F489E795E00E94BF2360933804709377
:10217000390480933A0490933B0488CDC535A1F48B
:1021800089E795E00E94C323092E000CAA0BBB0B24
:102190008093400490934104A0934204B09343047D
:1021A00085E080935B0472CD80ED8C0F863060F407
:1021B00089E795E00E94C323EC2FEE0FFF0BED5F44
:1021C000FB4F9183808362CD85EA91E061CDEF92F0
:1021D000FF920F931F93CF93DF93F12CE12CC0E27A
:1021E000D0E001E010E082EB96E00E947203892BC0
:1021F00009F461C082EB96E00E9450032091DC025A
:102200003091DD0221153105F1F04091DA02509153
:10221000DB02BA016F5F7F4F7093DB026093DA02DB
:102220004A585A4FFA018083215031093093DD0218
:102230002093DC02232B79F40E94300E1092DB02F3
:102240001092DA0208C08E3751F48093760510930D
:10225000DB020093DA02EE24E394F12CC4CF209148
:10226000DA023091DB028D3029F42A583A4FF90115
:102270001082E2CF2634310508F72115310559F3D4
:10228000A9014F5F5F4F5093DB024093DA022A5857
:102290003A4FF901808343305105E9F68091770583
:1022A0008335C9F6809178058234A9F6D093DD0292
:1022B000C093DC02D0CFC701DF91CF911F910F9166
:1022C000FF90EF9008951F920F920FB60F92112476
:1022D0002F933F934F935F936F937F938F939F932E
:1022E000AF93BF93EF93FF9382EB96E00E9492032C
:1022F000FF91EF91BF91AF919F918F917F916F91DE
:102300005F914F913F912F910F900FBE0F901F90B3
:1023100018951F920F920FB60F9211242F938F933F
:102320009F93EF93FF93E091C206F091C3068081E3
:10233000E091C806F091C90682FD1BC09081809192
:10234000CB068F5F8F732091CC06821741F0E0910E
:10235000CB06F0E0EE54F94F958F8093CB06FF91BA
:10236000EF919F918F912F910F900FBE0F901F9023
:1023700018958081F4CF1F920F920FB60F921124FF
:102380002F933F938F939F93AF93BF938091E502D9
:102390009091E602A091E702B091E8023091E40248
:1023A00026E0230F2D3758F50296A11DB11D20936D
:1023B000E4028093E5029093E602A093E702B093D3
:1023C000E8028091E9029091EA02A091EB02B091BB
:1023D000EC020196A11DB11D8093E9029093EA02DF
:1023E000A093EB02B093EC02BF91AF919F918F91BC
:1023F0003F912F910F900FBE0F901F90189529E8D5
:10240000230F0396A11DB11DD2CF1F920F920FB6BD
:102410000F9211242F933F934F935F936F937F936A
:102420008F939F93AF93BF93EF93FF93E091E2025B
:10243000F091E302EE0FEF2FEE1FFF0BF195EF513E
:10244000FE4FE491E093B40080910201909103016A
:102450002091E2023091E302280F391F3093E3020A
:102460002093E2022091E0023091E1022F5F3F4F82
:102470002A313105A8F43093E1022093E002FF9164
:10248000EF91BF91AF919F918F917F916F915F91EC
:102490004F913F912F910F900FBE0F901F90189565
:1024A0001092E1021092E0023091DF02353059F4CF
:1024B00021ED82272BE19227909303018093020163
:1024C0001092DF02DCCF209101012F5F2830A1F0B4
:1024D000209301013091DE02432F50E02091DF0272
:1024E00030FF5CC027FD03C02F5F2093DF025595AE
:1024F00047954093DE02C3CF109201012091000165
:102500002630F0F440914B064423D1F0E0914C0684
:10251000F0914D06AF014F5F5F4F50934D064093D2
:102520004C0620812093DE0220914B0621502093FF
:102530004B06222379F137FFCDCF1092DF02CACFAD
:1025400021502093000121111EC061E088E00E940B
:102550008E04809170008E7F809370001092E10253
:102560001092E0021092E3021092E20284ED99E0F0
:10257000909303018093020187E38093000187E039
:10258000809301019DCF2EE72093DE022FEF209351
:10259000DF02A0CF27E020930001CDCF31ED8327CC
:1025A0003BE19327909303018093020127FD9FCF86
:1025B0001092DF029CCF1F920F920FB60F92112440
:1025C0002F933F934F935F936F937F938F939F933B
:1025D000AF93BF93EF93FF93E091F002F091F1027C
:1025E000309749F0A685B7858585968D91FF14C0F3
:1025F0009C918923A1F4FF91EF91BF91AF919F919D
:102600008F917F916F915F914F913F912F910F909B
:102610000FBE0F901F9018959C91892361F7A38995
:10262000B4899C918589809589238C938689978923
:102630000197F1F7608D718DA685B785558538E0D6
:1026400020E0CB010197F1F7822F90E095958795D7
:10265000282F4C91452309F02068315091F7868D41
:1026600081FD20958091EF0290E00196837099277B
:102670003091EE02381799F0A091EF02B0E0AA5223
:10268000BD4F2C938093EF02828D938D0197F1F7CC
:10269000A389B4898C919589892B8C93ACCF868D35
:1026A0008160868FF1CF1092B5061092B40688EE45
:1026B00093E0A0E0B0E08093B6069093B706A093B5
:1026C000B806B093B9062BE531E03093B3062093FA
:1026D000B20625EC30E03093BF062093BE0624EC12
:1026E00030E03093C1062093C00620EC30E03093F8
:1026F000C3062093C20621EC30E03093C506209338
:10270000C40622EC30E03093C7062093C60626ECC0
:1027100030E03093C9062093C8061092CB06109281
:10272000CC061092CD061092CE061092740710922D
:1027300073078093750790937607A0937707B093FC
:1027400078078DE691E0909372078093710710925D
:1027500088071092870710928A07109289071092B3
:102760008C0710928B0710928E0710928D07609144
:102770008F076E7F6D7F60938F076695617081E034
:1027800068278FE00E948E0461E08FE00E94BC0405
:10279000EAEAF5E0E491E0938107E6E9F5E0E49107
:1027A000F0E0EE0FFF1FE358FA4F8591949190935C
:1027B00083078093820760E080E10E94BC048091DF
:1027C0008F0781FD04C061E080E10E948E0480E1FA
:1027D00080937D07EBEAF5E0E491E0937E07E7E97B
:1027E000F5E0E491F0E0EE0FFF1FED58FA4F859110
:1027F00094919093800780937F0760E084E00E942B
:10280000BC04EFE9F5E0E491E0936307EBE8F5E061
:10281000E491F0E0EE0FFF1FED58FA4F859194918F
:10282000909365078093640710926E07109270076B
:1028300010926F0710926D0710926C0710926B0741
:1028400010926A0710926907109268071092670742
:102850001092660783E697E090935607809355079A
:10286000109253071092540710924F0789E08093FB
:10287000500781E0809351078093520710926207BE
:10288000109261070895CF93DF93CDB7DEB7C6549A
:10289000D1090FB6F894DEBF0FBECDBF789484B5D2
:1028A000826084BD84B5816084BD85B5826085BD4C
:1028B00085B5816085BD80916E00816080936E00DA
:1028C00010928100809181008260809381008091CC
:1028D000810081608093810080918000816080937D
:1028E00080008091B10084608093B1008091B0003D
:1028F00081608093B00080917A00846080937A0038
:1029000080917A00826080937A0080917A008E7F35
:1029100080937A0080917A00806880937A00109288
:10292000C100E091C206F091C30682E08083E0918D
:10293000BE06F091BF061082E091C006F091C1067C
:1029400089E180831092CA06E091C606F091C7061D
:1029500086E08083E091C406F091C50680818061A5
:102960008083E091C406F091C506808188608083F1
:10297000E091C406F091C506808180688083E09173
:10298000C406F091C50680818F7D808386E492E045
:102990000E949F0D82E794E00E9401048CE694E07F
:1029A0000E94110C8DE594E00E9401049E012F5FAE
:1029B0003F4F19018091900790919107009711F472
:1029C0008CE997E0A101481B590BCA010E94C60C73
:1029D00090E080E00E947C2B843409F006C181E005
:1029E00090E00E947C2B833409F0FFC002E010E0ED
:1029F00030EEE32E35E0F32EC8010E947C2BD70188
:102A00008D937D010F5F1F4F0D361105A9F761E012
:102A100087E00E94BC0461E087E00E948E0461E0D0
:102A200086E00E94BC0460E086E00E948E0460E0C4
:102A300081E10E948E0461E081E10E94BC0460E0BB
:102A400081E10E948E04449A459A8091B9008E7F5C
:102A50008093B9008091B9008D7F8093B90080E2A6
:102A60008093B80084E48093BC0081E080930701E8
:102A700060E08EE00E94BC0461E08AE00E94BC0439
:102A800060E085E00E94BC041FB7F8948091ED02DD
:102A9000811127C0E1E9F5E08491E5EAF5E0949140
:102AA000E82FF0E0EE0FFF1FE45FFB4FA591B4911C
:102AB000EC91E92321F461E08AE00E948E0461E058
:102AC0008AE00E94BC048CB580618CBD8CB58064AA
:102AD0008CBD61E08DE00E94BC0461E08BE00E944F
:102AE000BC048091ED028F5F8093ED021FBF81E8EF
:102AF0000E946B0780E80E946B0781E80E946B07C9
:102B00000E94B807E0915507F09156071386158685
:102B100014861286118610861782168215821482F8
:102B20001382109253071092540701E0B101809173
:102B30005507909156070E94E00A882309F467C060
:102B400067E0C1010E94740698858913EFCF8091D8
:102B50004F07811126C080915507909156070E941A
:102B60001C0AB10180915507909156070E941207E7
:102B700040E064EB80915507909156070E94DE0675
:102B800080915507909156070E948B06182F8091CF
:102B90005507909156070E941C0A111102C000931C
:102BA0004F07109150078981803111F40C941C2338
:102BB000C1010E94B30A8117D8F480915007809315
:102BC0005007809153078F5F809353078981883224
:102BD00031F0B8F4803119F0823209F0A7CF80913A
:102BE00054078F5F80935407A1CF0E94D30D0FCF5E
:102BF0008981803111F48CE0E2CFC1010E94B30AD7
:102C0000DECF8B3361F3823409F090CFE8CF60914F
:102C1000530760931E0470E090E080E04AE00E9459
:102C2000420C8BE494E00E94110C00911E04802F52
:102C3000033008F082E080931E04002309F4D1C021
:102C400089E080935007F12CE12CAFE5DA2EBFE745
:102C5000CB2E1FE1B12E8FE3A82E809153078E1546
:102C60001F0409F00CF4A0C06E2DCE018D960E94B9
:102C7000600B109150071D3008F11CE08DA58031CC
:102C800009F1CE018D960E94B30A811709F484C020
:102C9000B101CE018D960E944F0A882309F47CC0B1
:102CA0008DA5803109F478C01B3009F479C01C303F
:102CB00059F01A3009F076C0AD8207C01930F0F62D
:102CC00019E0DCCF8CE0E1CFCD8280915507909167
:102CD00056070E941C0ABE01635D7F4F8091550715
:102CE000909156070E94120740E06EE480915507CC
:102CF000909156070E94DE0640E06B818091550757
:102D0000909156070E94DE0640E06C818091550745
:102D1000909156070E94DE068DA5803141F040E07B
:102D20006D8180915507909156070E94DE06809133
:102D30005507909156070E941C0ABE01635D7F4FA4
:102D400080915507909156070E94120740914F07B6
:102D500068E480915507909156070E94DE0664E171
:102D600070E080E090E00E94120580914F07882378
:102D700031F06AE070E080E090E00E9412058091FE
:102D80005507909156070E941C0A809150078117A1
:102D900008F4812F80935007BFEFEB1AFB0A5DCF39
:102DA000DD8293CFBD8291CF0130D9F460E0C101C3
:102DB0000E94600B48E050E063E476E0C1010E94AD
:102DC000792D892B71F088E0F101A3E4B6E0019040
:102DD0000D928A95E1F70E94B20D80E394E00E9483
:102DE000110C10E06E01E9E0CE0ED11C80911E04A2
:102DF000181780F5612FC1010E94600B7101D70186
:102E00008D917D01803118F480E30E941C04F7014C
:102E10003197608170E090E080E040E10E94420CD8
:102E200080E20E941C04CE14DF0449F748E050E021
:102E300063E476E0C1010E94792D892B41F410935F
:102E40004E0483E294E00E94110C1F5FCFCF86E115
:102E500094E0F9CF61E089E00E94BC0460E089E081
:102E60000E948E0464E670E080E090E00E9412050B
:102E700061E088E00E94BC0461E088E00E948E046A
:102E800064E670E080E090E00E94120561E089E075
:102E90000E948E0464EF71E080E090E00E941205D1
:102EA00061E083E00E94BC0483E28093B00081E093
:102EB0008093B10010928C0710928B0710928A07B2
:102EC0001092890710928807109287078DEC90E086
:102ED00090938E0780938D0790917D07963108F02F
:102EE00047C025E530E030938807209387072BEC17
:102EF00030E030938A072093890720E930E030934F
:102F00008C0720938B072091680084E0983048F06C
:102F100031E09E3008F430E081E001C0880F3A953E
:102F2000EAF7822B809368002DE630E0983050F06D
:102F30002BE630E09E3030F02CE630E0963110F099
:102F400030E020E03093850720938407292F30E07C
:102F5000983008F060C081E001C0880F9A95EAF7C8
:102F60008093860780918D0790918E070197F1F7E6
:102F700080918B0790918C07892B49F1E091F002A9
:102F8000F091F102B7E0E137FB0709F1309739F032
:102F9000A389B4899C918589809589238C9380919C
:102FA0008F078E7F80938F071092EF021092EE02B0
:102FB00081E797E09093F1028093F002E09184071B
:102FC000F0918507808190918607892B8083FE018F
:102FD00031966F01809175058823E1F10E94E71019
:102FE000892B31F10E9445056053784F8F4F9F4FD9
:102FF00060937105709372058093730590937405C7
:1030000080E090E0892B31F30E947E03882311F346
:103010000E940000DCCF9E3040F42850310981E04E
:1030200001C0880F2A95EAF79BCF2E503109F7CFC0
:103030000E9445050091710510917205209173055C
:10304000309174050617170728073907C8F610923C
:103050007505D6CF0E94E710F7EA6F2EF1E07F2EBC
:1030600042E06DEF82E40E94F9050E940403082FFC
:103070000E94040310E0102F0027080F111D0132D9
:10308000110514F50115110509F5102FF12C8824EF
:103090008A9472E0472E512CF11608F018C20E9453
:1030A000040320917D0330917E03853BA9F42530F4
:1030B0003105A0F58093FD0221E030E030937E03DE
:1030C00020937D03F394E8CF00E210E0402F6FEFF0
:1030D00082E40E94F905D9CF823681F4253031058A
:1030E000E8F4232B19F435EB3093FD0242E64093CC
:1030F000FE0250927E0340927D03E4CF843271F44D
:103100002115310511F00C9422238093FD0281E0FA
:1031100090E090937E0380937D03D4CF2E373105CA
:1031200028F010927E0310927D03CCCF211531053B
:1031300049F29091FD02953B09F063C1A9014F5FEF
:103140005F4F50937E0340937D0323503D4FD90141
:103150008C934630510571F48091020390E0982FD2
:10316000882720910103820F911D9093FC02809388
:10317000FB02A8CF4730510508F4A4CF8091FB0291
:103180009091FC0208964817590708F49BCF80914C
:10319000FF028530F1F480910003813061F4809169
:1031A000FA02863041F48091F902843269F4809108
:1031B000F202809351048091FF028093FA02809181
:1031C00000038093F902ADCF8131A9F780925204B8
:1031D000F2CF813081F780910003873061F7009151
:1031E00017030093490480911A0380934404002339
:1031F00011F3609103037091040380910503909192
:10320000060328EE33E040E050E00E94FB2BCA01A9
:10321000B90120E831E541E050E00E94FB2B6093CA
:10322000340470933504809336049093370480916E
:103230000B038093310480910C03809332048091BE
:103240000D0380933304E0900A038E2D90E0909359
:103250002C0480932B04B09009038B2D90E0909365
:103260002E0480932D04A090070390900803A09251
:103270002F049092300480915B04882309F471C07C
:10328000815080935B0480910801882309F493CFD7
:1032900087E894E00E9401049F92AF921F92BF9230
:1032A0001F92EF927F926F92DF92CF920E94E92D50
:1032B000B60182EB96E00E94020C809133041F92CB
:1032C0008F93809132041F928F93809131041F92CB
:1032D0008F93E7EBF1E0FF93EF93DF92CF920E94A1
:1032E000E92DB60182EB96E00E94020C60913C044D
:1032F00070913D0480913E0490913F040E94DA0C4D
:103300008CE20E941C046091380470913904809111
:103310003A0490913B040E94DA0C8CE20E941C0457
:103320006091400470914104809142049091430463
:103330000E94880C8CE20E941C046091440470E09E
:1033400090E080E04AE00E94420C64E472E082EB8C
:1033500096E00E94020C0FB6F894DEBF0FBECDBF00
:103360002ACF8FEF800F843008F08DCF60911B0340
:1033700070911C0380911D0390911E030E945C2A92
:1033800020E836E948E15BE40E94992C6093380418
:103390007093390480933A0490933B0460911F0327
:1033A0007091200380912103909122030E945C2A56
:1033B00020E836E948E15BE40E94992C60933C04E4
:1033C00070933D0480933E0490933F040350023079
:1033D00008F059CF60912703709128038091290349
:1033E00090912A0328EE33E040E050E00E94922BB7
:1033F000209340043093410440934204509343048B
:1034000042CF943209F05ECE843209F480CE8D3002
:1034100009F458CEA9014F5F5F4F50937E0340934C
:103420007D0323503D4FD9018C938A3009F04ACE59
:1034300043505D4FFA01108243E050E067EC71E0C9
:1034400080E093E00E94A12D892B21F480E00E946E
:10345000C90867CE43E050E06BEC71E080E093E098
:103460000E94A12D892B11F484E0F1CF43E050E0BC
:103470006FEC71E080E093E00E94A12D892B11F4A4
:1034800083E0E5CF43E050E063ED71E080E093E05E
:103490000E94A12D892B11F481E0D9CF43E050E0A7
:1034A00067ED71E080E093E00E94A12D892B11F47B
:1034B00082E0CDCF43E050E06BED71E080E093E03F
:1034C0000E94A12D892B09F02CCE85E0C0CF1111CF
:1034D000C7CD0E9445058090F5029090F602A0901D
:1034E000F702B090F802681579058A059B0560F12E
:1034F00089288A288B2809F0CDC10E944505609350
:10350000F5027093F6028093F7029093F8021092FE
:103510007E0310927D03E090F302F090F402E11438
:10352000F10409F4BEC1F1E0EF16F10409F4C7C1DA
:103530002FEFE21AF20A33E0E316F10408F0F6C1C5
:10354000F092F402E092F3020E944505009180039C
:1035500010918103209182033091830360177107DA
:1035600082079307A0F110917F038091400490910E
:103570004104A0914204B091430460E0893E93402D
:10358000A105B1055CF480914904833009F0D3C1F1
:1035900080914404843008F4CEC1612F86E00E94FB
:1035A0008E0460E087E00E948E040E9445056C5006
:1035B0007E4F8F4F9F4F6093800370938103809362
:1035C00082039093830381E0811B80937F0380912A
:1035D0004404843090F14091400450914104609142
:1035E000420470914304413D87E05807610571052D
:1035F0003CF080916204811103C081E080936204F9
:10360000809162048130C9F4809130069091310636
:10361000813DA7E09A0788F0B0E0A0E0481759077D
:103620006A077B0754F082E080936204609132065F
:1036300070E090E080E00E94210C809084039090E4
:103640008503A0908603B090870381149104A104A0
:10365000B104B9F00E944505681579058A059B05F6
:1036600080F060E081E10E948E048CE894E00E948A
:10367000110C10928403109285031092860310920D
:10368000870380919203909193030197E1F40E9444
:103690006A04892B09F451C782E10E94A407182FFC
:1036A00060E482E10E94560715FF4BC160E282E1AF
:1036B0000E94560780918803909189030196909308
:1036C00089038093880380919203909193030297DA
:1036D00009F033C70E946A04892B09F026C70E94AB
:1036E000450500911A0410911B0420911C0430918F
:1036F0001D04601771078207930708F47FC080914B
:1037000012049091130490931104809310048091FB
:1037100014049091150490931304809312048091E3
:1037200016049091170490931504809314048091CB
:1037300018049091190490931704809316048091B3
:103740000701B0E48B9FC001112480937C0080911D
:103750007A00806480937A0080917A0086FDFCCFA5
:103760006091780080917900982F862F90931904AA
:103770008093180460911004709111042091120438
:1037800030911304620F731F2091140430911504BB
:10379000620F731F2091160430911704620F731F7C
:1037A000680F791F90E080E00E945A2A22E538EBEA
:1037B0004EE451E40E94BB2A20E030E040EA50E4AD
:1037C0000E94992C0E94122D4B017093500460931B
:1037D0004F048EEA94E00E940104C4010E94C60CCA
:1037E0000E944505605F784D8F4F9F4F60931A048C
:1037F00070931B0480931C0490931D040E94450544
:10380000009120041091210420912204309123047E
:10381000601771078207930708F4E4C380911F04BF
:10382000882309F4B9C50AE414E0812C912C5401D1
:1038300080911E048815190409F00CF4BEC3682D8C
:10384000CE018D960E94600B811172C360E070E022
:103850008EEF92EC0E940B2DD8016D937D938D011C
:1038600084EB94E00E940104C501B4010E94880C1D
:1038700065E072E082EB96E00E94020CF80132975C
:10388000808191810E94C60CBFEF8B1A9B0AAB0A04
:10389000BB0ACECF0E94450568537F4F8F4F9F4F85
:1038A0002ECE88E0EDE1F1E0D10101900D928A95F4
:1038B000E1F768E070E0C1010E948C0839CE809188
:1038C000080690910906B0E0A0E0409140045091B4
:1038D0004104609142047091430484179507A60740
:1038E000B70714F586E08093F2029091510489178E
:1038F00009F41ECE9CE2E5E2F1E0D10101900D92C7
:103900009A95E1F78987FE0133969E01255D3F4F29
:1039100080E09191190F810F2E173F07D1F71BA758
:103920008CA76CE270E0C7CF83E0DDCF1092F40289
:103930001092F30209CE60E086E00E948E04612FAF
:1039400031CE80E10E94A407F82E83E10E94A407F3
:10395000B82E082F10E00837110514F007E710E023
:103960006F2D8DE00E94560756E9E52E53E0F52EA7
:10397000C70186599340801791073CF480E00E946C
:10398000A407F70181937F01F3CFF801EA56FC4FBA
:1039900010826FEF82E10E945607BB2009F4CDC56B
:1039A00089E10E94A40787FD8D5F182F1595159555
:1039B0008AE10E94A4078D59990B212F012E000C3A
:1039C000330B17FF02C0820F931F30935D042093C7
:1039D0005C0490935F0480935E04809196038A3226
:1039E00009F0ABC587E993E09EAF8DAF03E316E026
:1039F000D8010D900020E9F78D0104531640C9F05D
:103A00008FED91E00E94BE2D30E020E0E7E9F3E089
:103A10009081992371F0D901AD5CB94F8C919827B1
:103A20009F779193C9010196B8010E945F2D9C0177
:103A3000EFCF86E993E00E949F0DBE01635C7F4F4C
:103A4000CE018D960E94310760EE75E0CE018D9615
:103A50000E94912D892B09F036CE809160049091BF
:103A6000610401969093610480936004EDADFEAD16
:103A7000CF0101969EAF8DAF8081833409F023CEB4
:103A8000CF0102969EAF8DAF81818E3409F01BCE9F
:103A9000BE01635C7F4FC6010E943107C6010E94D0
:103AA000C323181619061CF08091320690E028EE08
:103AB00033E0829FB001839F700D929F700D11249F
:103AC000072E000C880B990B0E94210C83E0809339
:103AD0006204F9CD709306016093050120911506EB
:103AE0002617170609F084C580910E0490910F04E3
:103AF000019690930F0480930E0440911A06509102
:103B00001B0670E060E00091400410914104209198
:103B100042043091430440175107620773070CF0C9
:103B20006FC020911806309119062817390708F040
:103B30006CC010920F0410920E0480910E049091AC
:103B40000F04892B09F0DDC16CEE71E086E993E08A
:103B50000E949A2D809194039091950301969093E1
:103B600095038093940380EE882E85E0982E9FEE37
:103B7000A92E91E0B92E20EAE22E21E0F22E37E0C4
:103B8000632E712C42EF442E41E0542ED401509606
:103B9000EC91EE2309F426C11982E03309F03FC00D
:103BA00060EE75E0C6010E949A2DB0EE8B16B5E06E
:103BB0009B0631F067E172E086E993E00E94862D72
:103BC000B60186E993E00E94862DEFEF8E1A9E0AD9
:103BD000DDCF80908A0390908B03A0908C03B090EF
:103BE0008D0381149104A104B10409F401C50E945C
:103BF0004505681579058A059B0508F075CFF8C459
:103C0000209116063091170690CF80916F05909104
:103C100070058F3F910509F008F48BCF8ECFE1330B
:103C200039F4809195038F93809194038F9363C0AF
:103C3000E233C1F4809133041F928F938091320458
:103C40001F928F93809131041F928F935F924F92B6
:103C5000DF92CF920E94E92D0FB6F894DEBF0FBE1F
:103C6000CDBFA3CFE33371F460913C0470913D0468
:103C700080913E0490913F04860125E047E00E9438
:103C8000452393CFE43349F46091380470913904AB
:103C900080913A0490913B04EFCFE533A9F48091F1
:103CA00043048F93809142048F93809141048F93BA
:103CB000809140048F9321E032E03F932F93DF9275
:103CC000CF920E94E92DC8CFE63321F480914404BD
:103CD0001F92ACCFE73391F4209145043091460414
:103CE000ADE0A29FC001A39F900D1124B3010E94DB
:103CF0005F2D7F936F93BF92AF920AC0E83399F420
:103D0000809148048F93809147048F93FF92EF92A4
:103D1000DF92CF920E94E92D0F900F900F900F909D
:103D20000F900F9042CFE93331F4809150048F937C
:103D300080914F04EACFE13459F4E0914E04F0E071
:103D4000EE0FFF1FE55DFB4F80A18F93878DDDCFC9
:103D5000E23439F480914E04E1E0F0E0E81BF1092F
:103D6000EFCFE33449F46091570470915804809187
:103D7000590490915A0480CFE43449F4609153047B
:103D800070915404809155049091560475CFE53498
:103D900021F4809162041F92B8CFE63431F480910F
:103DA0005D048F9380915C04B0CFE73431F480914F
:103DB0005F048F9380915E04A8CFE83431F4809142
:103DC00061048F938091600431CF87EB8E0F863032
:103DD00008F0EBCEEE0FFF0BEF52FC4F81818F937B
:103DE000808124CF26E933E0D9010D900020E9F746
:103DF0009D0127593340E8E9F3E08FEF9FEFAF01D2
:103E00004659534042175307BCF44191042E000C0D
:103E1000550B542F44278427952748E050E0BC01D8
:103E2000880F991F77FF04C0B1E28B27B0E19B2771
:103E300041505109A1F7E3CF4AE2F901EA56FC4F9C
:103E40004083492F42954F70D9011296F901E956E6
:103E5000FC4F4A3008F04DC0405D4083492F4F7001
:103E6000F9013396AA56BC4F4A3008F044C0405D71
:103E70004C93AC01A4E056954795AA95E1F74F7095
:103E8000B9016C5F7F4FEA56FC4F4A30B0F5405D98
:103E900040838F70F90135966A567C4F8A3078F5E9
:103EA000805DDB018C93EA56FC4F8AE080832456C8
:103EB0003C4FF901108206E913E0D8010D90002073
:103EC000E9F78D010759134088EA94E00E94010444
:103ED00066E973E082EB96E00E94020C8DE00E949E
:103EE0001C04B8016F5F7F4F86E993E00E9433089E
:103EF000F6CB495CB2CF495CBBCF495CC9CF895C8A
:103F0000D0CF6FEF70E080E794E00E9433088EE935
:103F100094E00E94110C1092700510926F0588E9D0
:103F200094E00E94010490E080E00E94B20CD7CBA4
:103F3000B601CE018D960E944F0A882309F486CCE3
:103F40006A8170E0762F6627770F770F770F2981C8
:103F5000E8E02E9F90011124262B372B8DA5803170
:103F6000D1F4688570E08F81AB01481B5109CA010B
:103F70009695982F8827979587950E945F2DCB015E
:103F80004097B90153E0660F771F5A95E1F76078C3
:103F90009C01260F371F213854EE35070CF456CC00
:103FA000B901330F880B990B0E945C2A20E030E0A6
:103FB00040E05CE30E94BB2A4DCC0E944505605F57
:103FC000784D8F4F9F4F609320047093210480930E
:103FD00022049093230481E090911F04911180E0CA
:103FE00080931F040E944505009127041091280426
:103FF0002091290430912A046017710782079307E2
:1040000010F40C94001880914404843010F40C9443
:10401000001880912006882311F40C9400188091D8
:104020002706181614F00C94001880914B06811185
:104030000C9400188AE295E00E94110C7E01EDE2DA
:10404000EE0EF11C60911C0670911D0680911E06FB
:1040500090911F06870124E048E00E94452367E015
:1040600072E0C6010E949A2DB701C6010E94862DFA
:1040700069E172E0C6010E94862D86EE94E00E94FE
:10408000110CB60181E797E00E94020CB60182EBA9
:1040900096E00E94020C64EF71E080E090E00E94E4
:1040A000120581E090912D06911180E01F928F936F
:1040B00081E392E09F938F93DF92CF920E94E92D4C
:1040C0008FEC94E00E94110CB60181E797E00E940A
:1040D000020CB60182EB96E00E94020C64EF71E0E4
:1040E00080E090E00E94120586E195E00E94110CAC
:1040F00060E088E00E948E0464EF71E080E090E070
:104100000E94120540903C0450903D0460903E0493
:1041100070903F04209138043091390440913A0462
:1041200050913B0426962CAF3DAF4EAF5FAF269724
:104130008090400490904104A0904204B0904304C9
:104140008091280690912906092E000CAA0BBB0B22
:104150000F900F900F900F900F900F9000912A06E4
:1041600010E088159905AA05BB0514F001E011E0DF
:10417000209124043091250450E040E062E0C70122
:104180000E9419092091440430E050E040E062E0D0
:10419000CE018F960E94190920914A0430914B0458
:1041A0002C593F4F032E000C440B550B62E0CE01FF
:1041B000C1960E94190920914F0430915004032E9A
:1041C000000C440B550B62E0CE01C3960E94190906
:1041D0008091260481113CC120E030E044E353E4A7
:1041E00026966CAD7DAD8EAD9FAD26970E942D2C91
:1041F00020EC3FEF49E358E40E94BB2A0E940B2DBC
:104200009B01AC0164E0C6010E94190923968FAF9F
:10421000239727969FAF2797A301920160E070E054
:1042200084EB92E40E942C2C20EC3FEF49EB58E405
:104230000E94BB2A0E940B2D9B01AC0164E0CE01C1
:10424000CD960E941909782E692E8DEB94E09F93EC
:104250008F93FF92EF92A8E2B0E8A50194010E942B
:10426000B12B20E137E240E050E00E94922B5F93B7
:104270004F933F932F9327963FAD27973F932396D6
:104280004FAD23974F936F927F9287E492E09F9375
:104290008F930F931F931F928BE791E09F938F93C0
:1042A000809127068F9380E296E09F938F930E94E0
:1042B000970B60912F060FB6F894DEBF0FBECDBFEF
:1042C0002091240430912504662359F0062E000C19
:1042D000770BC9010E944B2D892B19F481E0809343
:1042E00026042F5F3F4F30932504209324048091B0
:1042F0002604812C912C5401811129C080902B0619
:1043000090902C06092C000CAA08BB0880912E0660
:104310001816ECF40E94AF2320912E06622F022E75
:10432000000C770B0E945F2DAC01922F27FD9F5F41
:104330009595DA01A91BB10997FDB395CD01092E19
:10434000000CAA0BBB0B880E991EAA1EBB1E86E092
:1043500095E00E9401044AE0C501B4010E94420CAC
:104360008DEF94E00E94110C0E9445052B013C0149
:10437000A8EEB3E0A50194010E94B12B460E571E92
:10438000681E791E409227045092280460922904E6
:1043900070922A040C94001880915507909156074A
:1043A0000E941C0A40E06CEC8091550790915607E2
:1043B0000E94DE0640914F0764E48091550790917A
:1043C00056070E94DE0680915107882399F1E091FB
:1043D0005007E9508EEE882E82E0982EE33038F4B4
:1043E000F0E0EE0FFF1FEF5AFE4F8080918080912A
:1043F0005207882331F180914F07811122C00E941A
:1044000045052B013C01092C000CAA08BB08809132
:104410005507909156070E948B06813059F00E94F3
:104420004505681979098A099B096415750586058A
:10443000970568F30E94450568517C4F8F4F9F4F49
:10444000C2CDB401990C880B990B0E941205F2CFD2
:1044500047E050E060E276E0C6010E94E823D60122
:104460000D900020E9F7CD0120912706422F022E62
:10447000000C550B5F932F9329EB34E03F932F9360
:104480001F9224E02F9301979F938F930E94FF2305
:10449000809126040FB6F894DEBF0FBECDBF8130E9
:1044A00009F5DF92CF9280E692E09F938F931F925F
:1044B0001F921F928BE791E09F938F938091270625
:1044C0008F9380E296E09F938F930E94970B809149
:1044D00026048F5F809326040FB6F894DEBF0FBECC
:1044E000CDBF05CF823029F4DF92CF928AE892E0E7
:1044F000DCCF833009F0FBCEDF92CF9286EA92E0E8
:104500009F938F931F921F921F928BE791E09F932F
:104510008F93809127068F9380E296E09F938F93ED
:104520000E94970B10922604D7CF68E082E10E9488
:104530005607109293031092920380911306909164
:104540001406892B09F4D0CA0E9445052091130650
:104550003091140680908E0390908F03A09090036A
:10456000B0909103B0ED8B0EB7E09B1EA11CB11C67
:1045700048EE53E0249FF001259FF00D349FF00D8D
:1045800011248E0E9F1EA11CB11C86169706A8062C
:10459000B90668F480918A0390918B03A0918C03F3
:1045A000B0918D03892B8A2B8B2B09F49DCA8091A6
:1045B0004404882309F40DCB50E040E060913404BA
:1045C00070913504809136049091370461517109DE
:1045D00081099109620F731F841F951F0E94FB2B95
:1045E00020910501309106016217730709F072CA24
:1045F0008091130690911406892B09F470C880915C
:10460000920390919303892B09F069C860E080E4DC
:104610000E94560760E08FE00E94560760E08DE040
:104620000E94560785E80E946B07E1E0F0E0F093F6
:104630009303E093920353C81D3010F00C94DD15E2
:104640000C94FB152E37310510F00C9491180C9436
:1046500099188DE691E0909372078093710780918D
:10466000F0029091F1028157974071F4E091840734
:10467000F0918507908180918607809589238083BA
:104680001092F1021092F0020895EF920F931F938F
:10469000CF93DF93E80134E047FD34E1042E000CB2
:1046A000550B57FF03C0519541955109E32E022F39
:1046B000242FAE010E940926CE01DF91CF911F91D8
:1046C0000F91EF9008958F929F92AF92BF92CF92E9
:1046D000DF92EF92FF92CF93DF93EC0168817981B3
:1046E0008A819B81611571058105910521F464E240
:1046F00079ED8BE597E02DE133EF41E050E00E944A
:10470000922B49015A019B01AC01A7EAB1E40E9436
:10471000B12B6B017C01ACEEB4EFA50194010E94BA
:10472000BF2BDC01CB018C0D9D1DAE1DBF1DB7FF46
:1047300003C00197A109B04888839983AA83BB83EA
:104740009F77DF91CF91FF90EF90DF90CF90BF9058
:10475000AF909F908F9008950E946323089589E001
:1047600091E00E9463230895B0E0A0E080930901E6
:1047700090930A01A0930B01B0930C010895662752
:1047800077270C946827FC0188279927E8942191C2
:104790002032E9F3293010F02E30C8F32B3241F0EB
:1047A0002D3239F4689404C00E94F723820F911DC2
:1047B000219120532A30C0F31EF4909581959F4F8C
:1047C0000895FB01DC0105900D920020E1F70895AA
:1047D000FB01DC014150504048F005900D92002053
:1047E000C9F701C01D9241505040E0F708957AE0AA
:1047F000979F902D879F802D910D11240895AEE0F5
:10480000B0E0E5E0F4E20C94D22B0D891E898F898B
:10481000988D2EE02C831A83098397FF02C080E0D5
:1048200090E801979E838D83AE01455E5F4F698D51
:104830007A8DCE0101960E942F244D815E8157FD15
:104840000AC02F813885421753070CF49A01020FD2
:10485000131FF80110822E96E4E00C94EE2BABE0CF
:10486000B0E0E5E3F4E20C94C42B7C013B018A0147
:10487000FC0117821682838181FFC8C1CE01019697
:104880005C01F7019381F30193FD859193FF819181
:104890003F01882309F453C1853239F493FD859192
:1048A00093FF81913F01853229F4B70190E00E9486
:1048B000C729E7CF912C212C312CFFE1F31538F0DB
:1048C0008B3211F190F4803209F1833229F137FCF7
:1048D0003CC020ED280F2A3050F536FE20C08AE07B
:1048E000989E200D1124922E06C08D3291F08033B7
:1048F00071F7689430F8F30193FD859193FF8191EE
:104900003F018111DACF21C0689431F8689432F800
:10491000F2CF689433F8EFCF689434F8ECCFEAE044
:104920002E9E200D1124222E689435F8E4CF8E326D
:1049300029F436FC04C1689436F8DDCF8C3619F4BE
:10494000689437F8D8CF8836B1F2982F9F7D955468
:104950009330E0F08336A1F18337C1F1833509F05C
:1049600063C02801F2E04F0E511CF801C080D180D5
:10497000692D70E036FC02C06FEF7FEFC6010E9428
:10498000B1294C01689437F882010AC00C5F1F4FAF
:10499000FFE3F98388248394912C6501E89437F828
:1049A00033FE2DC0522C8114910471F5552009F469
:1049B00068CFB70180E290E00E94C7295A94F6CFF1
:1049C000F801808189830E5F1F4FE4CF2801F2E058
:1049D0004F0E511CF801C080D180692D70E036FC6B
:1049E00002C06FEF7FEFC6010E94BC294C0182011B
:1049F000D5CFB70180E290E00E94C7292A942814FD
:104A0000190409F0B0F7CECFF60137FC859137FED7
:104A100081916F01B70190E00E94C72951105A940B
:104A2000F1E08F1A9108BFCF843619F0893609F06A
:104A300077C0F80137FE6BC06081718182819381FC
:104A40000C5F1F4FF32DFF763F2E97FF09C0909507
:104A50008095709561957F4F8F4F9F4F689437F881
:104A60002AE030E0A5010E94F729C82ECA188C2C34
:104A7000432C36FE0CC0E89440F8C91440F434FED0
:104A800005C032FC03C0F32DFE7E4F2E892C44FE60
:104A900095C0FE01EC0DF11D8081803309F087C0C7
:104AA000242D297E422E842D8870582E43FC95C0DB
:104AB00040FE8FC09C2C821418F42C0C922C981859
:104AC00044FE91C0B70180E390E00E94C72942FEF6
:104AD00009C088E790E041FE02C088E590E0B70198
:104AE0000E94C729C91408F48AC0CA94D12C9FEF28
:104AF000C91AD90ACA0CDB1CF60182916F01B701F1
:104B000090E00E94C729AC14BD04B1F74FCF60817B
:104B10007181072E000C880B990B0E5F1F4F92CFEF
:104B2000D32CE894D4F82AE030E0853739F1232DEE
:104B3000297FD22E8F3601F148F48835A9F0F7018C
:104B4000868197812B96E2E10C94E02B803749F027
:104B50008837A9F7D4FE02C06894D2F820E130E08B
:104B60000DC06894D4F8F6CF34FE03C0822F86605F
:104B7000D82E20E132E002C028E030E0F801D7FE74
:104B80000FC060817181828193810C5F1F4FA501ED
:104B90000E94F729C82ECA183D2CE89437F867CF31
:104BA0006081718190E080E00E5F1F4FF0CF42FC8A
:104BB00002C0839478CF8394839475CF842D8678B4
:104BC00009F471CFF6CFB70180E290E00E94C729C7
:104BD00083948214C0F3512C73CF522C5818821432
:104BE00008F46ECFF8CF842D867809F47BCF8BE262
:104BF00041FE80E247FC8DE2B70190E071CFB70142
:104C000080E390E00E94C7299A946CCF8FEF9FEFCA
:104C100099CFA9E0B0E0EFE0F6E20C94CA2B6A016C
:104C2000F22EB02E102FFBE3AF2EA01608F41BE3DC
:104C30001F5F012F27E0AE014F5F5F4F0E94B82832
:104C4000BC018981982F9970913009F43FC09BE293
:104C5000E1FC04C09E2D9170E0FC3AC05E2D5071C5
:104C6000E82FE87083FF46C084E0911101C083E023
:104C7000EF2DE81B8F1508F0E0E0D6018E2F20E223
:104C8000552351F1992329F0D6019C93C601019631
:104C90006C0196012D5F3F4FE2FE24C08EE4D601E9
:104CA0008C9391E411969C93119712968C93D90151
:104CB0008E2F90E281111BC0E20FF32FF11D1082A5
:104CC0008EEF9FEF2996ECE00C94E62B9DE2C6CF89
:104CD00090E2C4CF2D9381508111FCCFCE0ED11C18
:104CE000E0E0D0CF8EE6D6018C9391E6DBCF9D93AA
:104CF0008150E0CF482F447082FF3DC084E0911185
:104D000001C083E08F1510F4EF2DE81BD6018E2F24
:104D100020E2552309F1992329F0D6019C93C6017D
:104D200001966C0196012D5F3F4FE2FE1BC089E4A6
:104D3000D6018C938EE411968C93119786E412968B
:104D40008C93D9018E2F90E2882309F4B5CF9D93DF
:104D50008150FACF2D9381508111FCCFCE0ED11C02
:104D6000E0E0D9CF89E6D6018C938EE611968C933C
:104D7000119786E6E4CF9B0177FF02C030E020E088
:104D8000A1E0B0E0911102C0B0E0A0E0F9013196DD
:104D9000AE0FBF1F8B2C912CBB2009F461C05401B6
:104DA000EFEFAE1ABE0AAA0DBB1DFA161B0619F0CC
:104DB00014F04F2D4A1B511188C0E3FC59C07601F5
:104DC000A42FB0E2A1114FC0C40ED11C992309F445
:104DD0005BC040E0D6011196F60190836D0155232A
:104DE00009F448C0012F060F9A81582F507184FF93
:104DF00003C0913309F4015010160CF047C009307C
:104E000008F008E0EEE2FE2E5B01A01AB108850171
:104E10009194819491082F3F320729F4D601FC9296
:104E2000F60131966F016217730794F102171307A9
:104E30007CF5DB01A21BB30BAA24A394B12CAC0E0E
:104E4000BD1EAA0DBB1D11968C9121503109D601B2
:104E5000119628153905F4F0F60180836D01DBCF3A
:104E6000B12CA12CA0CFF701B1937F01A150AACF03
:104E70009111B0CFD601942F50E302C05D939150B1
:104E80009111FCCFC40ED11C40E0ACCF01E0BACFF1
:104E900080E3DBCF6217730731F4963388F49533E0
:104EA00011F4552369F0F6018083FD01842F90E20F
:104EB000811108C0A40FB11D1C9290E080E002CFC8
:104EC00081E3F1CF91938150F3CF911183CF8ACFBA
:104ED000B0E0A0E0EEE6F7E20C94CA2B5C017B01A7
:104EE0006115710519F0DB018D939C9385010F5FAE
:104EF0001F4FF501D0818D2F90E00E9490296C0109
:104F0000892BB9F5DD32B9F50F5F1F4FD501119629
:104F1000DC91C1E05801F1E0AF1AB10843E050E084
:104F200060E770E0C5010E949929892B69F5680145
:104F300082E0C80ED11C45E050E06BE670E0C6018F
:104F40000E949929892B21F4680197E0C90ED11C90
:104F5000E114F10419F0D701CD92DC9260E070E029
:104F600080E89FEFC111FFC060E070E080E89FE73C
:104F7000FAC05801BBCFDB3229F485010E5F1F4F09
:104F8000F501D181C0E0C6CF43E050E068E670E0B3
:104F9000C5010E949929892BE9F0F80110E000E091
:104FA00020E030E0A9015F01B0ED8B2E8D0E89E08D
:104FB0008815C8F19C2E689491F88C2F8870C2FFD8
:104FC00016C0811102C00F5F1F4F3196D501DC91D1
:104FD000C92DE9CFE114F10429F00E5F1F4FF7014D
:104FE0001183008360E070E080EC9FE7BCC0882301
:104FF00011F001501109A5E0B0E00E94B12B9B0116
:10500000AC01220F331F441F551F280D311D411DB8
:10501000511D283999E93907490799E15907A8F23B
:10502000C6609C2ED2CFAEEF8A1206C0C3FD3CC034
:105030009C2E689493F8C9CFDF7DD534A9F5808183
:105040008D3239F4C061DF011296818162E070E037
:1050500006C0DF018B32C1F3119661E070E080532E
:105060005D01A61AB70A8A30F8F4E0E8CE16ECE043
:10507000DE065CF4B601660F771F660F771FC60E5B
:10508000D71ECC0CDD1CC80ED11C5D01FFEFAF1A82
:10509000BF0A8C9180538A30A8F1C4FF03C0D19419
:1050A000C194D1080C0D1D1DC1FF09C0E114F1040C
:1050B00031F081E0A81AB108D701AD92BC92CA01C3
:1050C000B9010E945A2AC370C33009F490584B01A9
:1050D0005C0120E030E0A9010E94552A882309F4F0
:1050E00040C0CFE9D0E017FF05C011950195110927
:1050F000C7E8D0E06E01B8E1CB1AD10880E2E82E13
:10510000F12C0FC0D501B1CFFE012591359145910C
:1051100054910E191F09C501B4010E94BB2A4B010D
:105120005C01D501C4010E151F0574F72497F59491
:10513000E794CC16DD06A9F78A2F880F8B2F881FDE
:105140008F3F49F020E030E0A901C501B4010E9481
:10515000552A811106C082E290E0909395078093D2
:105160009407C501B401CDB7DEB7ECE00C94E62B93
:10517000283008F027E03327DA01990F311D87FD29
:10518000916000966105710539F432602E5F3D93A0
:1051900030E32A95E1F708959F3F30F0803871059C
:1051A000610509F03C5F3C5F3D93913008F08068F9
:1051B000911DDF93CF931F930F93FF92EF92192FBF
:1051C000987F9695E92F96959695E90FFF27E350DE
:1051D000FF4F99273327EE24FF24A701E70105900D
:1051E0000894079428F4360FE71EF81E491F511D36
:1051F000660F771F881F991F0694A1F705900794E3
:1052000028F4E70EF81E491F561FC11D770F881F8F
:10521000991F661F0694A1F70590079428F4F80ECD
:10522000491F561FC71FD11D880F991F661F771F63
:105230000694A1F70590079420F4490F561FC71F45
:10524000D81F990F661F771F881F0694A9F78491AE
:105250001095177041F0D695C79557954795F794D7
:10526000E7941A95C1F7E3EAF0E068941590159178
:1052700035916591959105907FE27395E118F10A5A
:10528000430B560BC90BD009C0F7E10CF11E431FAD
:10529000561FC91FD01D7EF4703311F48A95E6CFD6
:1052A000E894015030F0080F0AF40027021708F4C0
:1052B000202F2395022F7A3328F079E37D932A95C6
:1052C000E9F710C07D932A9589F60694979567951E
:1052D000379517951794E118F10A430B560BC90B34
:1052E000D00998F023957E9173957A3308F070E396
:1052F0007C932013B8F77E9170617D9330F0839595
:1053000071E37D9370E32A95E1F71124EF90FF900C
:105310000F911F91CF91DF91992787FD9095089567
:1053200091110C94282B803219F089508550C8F7C0
:105330000895FB01DC014150504088F08D9181348B
:105340001CF08B350CF4805E659161341CF06B357C
:105350000CF4605E861B611171F3990B0895881B34
:10536000FCCFFC010590615070400110D8F780958A
:1053700090958E0F9F1F0895FC0161507040019021
:105380000110D8F7809590958E0F9F1F08950F9369
:105390001F93CF93DF93182F092FEB018B8181FD92
:1053A00009C01FEF0FEF812F902FDF91CF911F9139
:1053B0000F91089582FF14C02E813F818C819D81C1
:1053C000281739073CF4E881F981CF0101969983C8
:1053D000888310838E819F8101969F838E83E3CF84
:1053E000E885F985812F0995892BA1F3DACFFA0198
:1053F000AA27283051F1203181F1E8946F936E7F14
:105400006E5F7F4F8F4F9F4FAF4FB1E03ED0B4E004
:105410003CD0670F781F891F9A1FA11D680F791F45
:105420008A1F911DA11D6A0F711D811D911DA11D56
:1054300020D009F468943F912AE0269F1124301966
:10544000305D3193DEF6CF010895462F4770405D01
:105450004193B3E00FD0C9F7F6CF462F4F70405DB0
:105460004A3318F0495D31FD4052419302D0A9F70B
:10547000EACFB4E0A6959795879577956795BA9505
:10548000C9F700976105710508959B01AC010A2ECB
:1054900006945795479537952795BA95C9F7620FA2
:1054A000731F841F951FA01D08950E94972A08F45A
:1054B00081E00895E89409C097FB3EF490958095AB
:1054C000709561957F4F8F4F9F4F9923A9F0F92FCA
:1054D00096E9BB279395F695879577956795B79548
:1054E000F111F8CFFAF4BB0F11F460FF1BC06F5F2E
:1054F0007F4F8F4F9F4F16C0882311F096E911C040
:10550000772321F09EE8872F762F05C0662371F060
:1055100096E8862F70E060E02AF09A95660F771F74
:10552000881FDAF7880F9695879597F90895990F50
:105530000008550FAA0BE0E8FEEF16161706E8075D
:10554000F907C0F012161306E407F50798F0621B7E
:10555000730B840B950B39F40A2661F0232B242B53
:10556000252B21F408950A2609F4A140A6958FEF72
:10557000811D811D08950E94CE2A0C94422B0E9409
:10558000342B38F00E943B2B20F0952311F00C9423
:105590002B2B0C94312B11240C94762B0E94532B23
:1055A00070F3959FC1F3950F50E0551F629FF00176
:1055B000729FBB27F00DB11D639FAA27F00DB11D8F
:1055C000AA1F649F6627B00DA11D661F829F222718
:1055D000B00DA11D621F739FB00DA11D621F839F9F
:1055E000A00D611D221F749F3327A00D611D231F75
:1055F000849F600D211D822F762F6A2F11249F57C3
:1056000050409AF0F1F088234AF0EE0FFF1FBB1FC5
:10561000661F771F881F91505040A9F79E3F510584
:1056200080F00C942B2B0C94762B5F3FE4F3983E88
:10563000D4F3869577956795B795F795E7959F5F2E
:10564000C1F7FE2B880F911D9695879597F90895C0
:1056500099278827089597F99F6780E870E060E0B0
:1056600008959FEF80EC089500240A9416161706FB
:1056700018060906089500240A9412161306140643
:1056800005060895092E0394000C11F4882352F0A6
:10569000BB0F40F4BF2B11F460FF04C06F5F7F4F5E
:1056A0008F4F9F4F089557FD9058440F551F59F045
:1056B0005F3F71F04795880F97FB991F61F09F3FFF
:1056C00079F087950895121613061406551FF2CF28
:1056D0004695F1DF08C0161617061806991FF1CF78
:1056E00086957105610508940895E894BB2766279F
:1056F0007727CB0197F90895F999FECF92BD81BD27
:10570000F89A992780B50895262FF999FECF1FBAE8
:1057100092BD81BD20BD0FB6F894FA9AF99A0FBEDA
:1057200001960895052E97FB1EF400940E94A92B64
:1057300057FD07D00E94FB2B07FC03D04EF40C94BE
:10574000A92B50954095309521953F4F4F4F5F4F76
:10575000089590958095709561957F4F8F4F9F4FDD
:1057600008950E941D2CA59F900DB49F900DA49F9D
:10577000800D911D11240895B7FF0C94B12B0E9448
:10578000B12B821B930B08952F923F924F925F9201
:105790006F927F928F929F92AF92BF92CF92DF9241
:1057A000EF92FF920F931F93CF93DF93CDB7DEB7A6
:1057B000CA1BDB0B0FB6F894DEBF0FBECDBF09943A
:1057C0002A88398848885F846E847D848C849B8491
:1057D000AA84B984C884DF80EE80FD800C811B819F
:1057E000AA81B981CE0FD11D0FB6F894DEBF0FBECE
:1057F000CDBFED010895A1E21A2EAA1BBB1BFD012E
:105800000DC0AA1FBB1FEE1FFF1FA217B307E4079F
:10581000F50720F0A21BB30BE40BF50B661F771FF7
:10582000881F991F1A9469F76095709580959095D7
:105830009B01AC01BD01CF010895A29FB001B39FB0
:10584000C001A39F700D811D1124911DB29F700D89
:10585000811D1124911D08955058BB27AA270E942D
:10586000442C0C94422B0E94342B38F00E943B2B8A
:1058700020F039F49F3F19F426F40C94312B0EF4E8
:10588000E095E7FB0C942B2BE92F0E94532B58F348
:10589000BA17620773078407950720F079F4A6F515
:1058A0000C94752B0EF4E0950B2EBA2FA02D0B0146
:1058B000B90190010C01CA01A0011124FF27591B55
:1058C00099F0593F50F4503E68F11A16F040A22F5B
:1058D000232F342F4427585FF3CF469537952795CC
:1058E000A795F0405395C9F77EF41F16BA0B620BCB
:1058F000730B840BBAF09150A1F0FF0FBB1F661F12
:10590000771F881FC2F70EC0BA0F621F731F841F54
:1059100048F4879577956795B795F7959E3F08F07A
:10592000B0CF9395880F08F09927EE0F979587953C
:1059300008950E94AD2C0C94422B0E943B2B58F0F2
:105940000E94342B40F029F45F3F29F00C942B2B5C
:1059500051110C94762B0C94312B0E94532B68F32D
:105960009923B1F3552391F3951B550BBB27AA2718
:1059700062177307840738F09F5F5F4F220F331F52
:10598000441FAA1FA9F335D00E2E3AF0E0E832D01A
:1059900091505040E695001CCAF72BD0FE2F29D01D
:1059A000660F771F881FBB1F261737074807AB07EF
:1059B000B0E809F0BB0B802DBF01FF2793585F4F64
:1059C0003AF09E3F510578F00C942B2B0C94762BDB
:1059D0005F3FE4F3983ED4F3869577956795B79546
:1059E000F7959F5FC9F7880F911D9695879597F951
:1059F0000895E1E0660F771F881FBB1F62177307CA
:105A00008407BA0720F0621B730B840BBA0BEE1FDE
:105A100088F7E09508950E94122D6894B1110C94B6
:105A2000762B08950E945B2B88F09F5798F0B92F32
:105A30009927B751B0F0E1F0660F771F881F991FC3
:105A40001AF0BA95C9F714C0B13091F00E94752BC5
:105A5000B1E008950C94752B672F782F8827B85FD5
:105A600039F0B93FCCF3869577956795B395D9F71B
:105A70003EF490958095709561957F4F8F4F9F4F25
:105A800008950E94972A08F48FEF08950E94972A9C
:105A9000880B990B0895AA1BBB1B51E107C0AA1FD5
:105AA000BB1FA617B70710F0A61BB70B881F991FBF
:105AB0005A95A9F780959095BC01CD01089597FB63
:105AC000072E16F4009407D077FD09D00E944B2DC5
:105AD00007FC05D03EF4909581959F4F08957095F1
