:100000000C94C4020C94EC020C94EC020C94E110DD
:100010000C94E1100C94E1100C94EC020C94EC02A2
:100020000C94EC020C9459110C94EC020C94EC021C
:100030000C94EC020C94EC020C94EC020C94EC0288
:100040000C9497100C94EC020C9465100C943F10D7
:100050000C94EC020C94EC020C94EC020C94EC0268
:100060000C94EC020C94EC024E414E494E4954590A
:10007000494E46CDCCCC3D0AD7233C17B7D1387773
:10008000CC2B329595E6241FB14F0A000020410089
:1000900000C84200401C4620BCBE4CCA1B0E5AAED3
:1000A000C59D7400407A10F35A00A0724E180900E2
:1000B00010A5D4E80000E87648170000E40B5402CD
:1000C0000000CA9A3B000000E1F505000080969808
:1000D00000000040420F000000A086010000001058
:1000E0002700000000E8030000000064000000009A
:1000F000000A00000000000100000000002C76D87B
:1001000088DC674F0823DFC1DFAE59E1B1B796E560
:10011000E3E453C63AE651997696E8E6C28426EBC4
:10012000898C9B62ED407C6FFCEFBC9C9F40F2BAD7
:10013000A56FA5F490055A2AF75C936B6CF9676D6F
:10014000C11BFCE0E40D47FEF520E6B500D0ED90C4
:100150002E0300943577050080841E080000204E91
:100160000A000000C80C333333330F986E1283112A
:1001700041EF8D2114893BE65516CFFEE6DB18D101
:10018000844B381BF77C1D901DA4BBE424203284D3
:10019000725E228100C9F124ECA1E53D2763646908
:1001A0006E6F70737578585B00506C6163696E6731
:1001B0002064656661756C742073657474696E671C
:1001C0007320696E20454550524F4D0080818384D5
:1001D0008687898A8C8D8F9192949597989A9B9D0A
:1001E0009EA0A1A3A4A6A7A9AAACADAFB0B2B3B478
:1001F000B6B7B9BABBBDBEBFC1C2C3C5C6C7C9CAFF
:10020000CBCCCECFD0D1D2D4D5D6D7D8D9DADBDDAE
:10021000DEDFE0E1E2E3E4E5E6E6E7E8E9EAEBEC8D
:10022000ECEDEEEFF0F0F1F2F2F3F4F4F5F5F6F7B1
:10023000F7F8F8F9F9F9FAFAFBFBFBFCFCFCFDFD19
:10024000FDFDFEFEFEFEFEFEFEFEFEFEFFFEFEFECF
:10025000FEFEFEFEFEFEFEFDFDFDFDFCFCFCFBFBCE
:10026000FBFAFAF9F9F9F8F8F7F7F6F5F5F4F4F31B
:10027000F2F2F1F0F0EFEEEDECECEBEAE9E8E7E6B4
:10028000E6E5E4E3E2E1E0DFDEDDDBDAD9D8D7D68C
:10029000D5D4D2D1D0CFCECCCBCAC9C7C6C5C3C2A4
:1002A000C1BFBEBDBBBAB9B7B6B4B3B2B0AFADACE7
:1002B000AAA9A7A6A4A3A1A09E9D9B9A989795944E
:1002C00092918F8D8C8A898786848381807E7C7BC6
:1002D000797876757372706E6D6B6A686765646243
:1002E000615F5E5C5B595856555352504F4D4C4BB5
:1002F00049484645444241403E3D3C3A393836350E
:10030000343331302F2E2D2B2A292827262524223D
:1003100021201F1E1D1C1B1A19191817161514133E
:10032000131211100F0F0E0D0D0C0B0B0A0A0908FA
:100330000807070606060505040404030303020272
:10034000020201010101010101010101010101019B
:10035000010101010101010202020203030304047D
:1003600004050506060607070808090A0A0B0B0C10
:100370000D0D0E0F0F101112131314151617181957
:10038000191A1B1C1D1E1F2021222425262728295F
:100390002A2B2D2E2F30313334353638393A3C3D27
:1003A0003E40414244454648494B4C4D4F505253C4
:1003B000555658595B5C5E5F6162646567686A6B3D
:1003C0006D6E707273757678797B7C7E005EBCE2B0
:1003D000613FDD83C29C7E20A3FD1F41009D23BEA3
:1003E00046DB65F88C11AF32CA57E9740000000093
:1003F000240027002A002020202045787465726E92
:10040000616C003C2D2D20494E5445524E414C000C
:1004100053746F726564206E65772044533138429F
:100420003230206164647265737300204453313844
:100430004232302773206F6E2062757300467265FA
:1004400065206D656D6F7279203D200056312E302C
:100450003000504954535633204156522046697259
:100460006D7761726520002D25690070692D696EB8
:100470002D7468652D736B792E636F6D0053656EF7
:10048000642041505253204D6F646520636F6D6D41
:10049000616E640053656E64204150525320467271
:1004A000657120636F6D6D616E6400207365636FAD
:1004B0006E6473004E657874207061636B657420A0
:1004C000696E200053656E64696E67204150525317
:1004D000205061636B65740053657474696E6720A6
:1004E0004150525320706172616D65746572730082
:1004F00054656D7000426174743D00000000080096
:100500000201000003040700000000000000004C8E
:100510004F52413D00535344563D004C4F52413DD4
:1005200053534456004750533D00535344563D00E7
:10053000535344563D00535344563D0056312E30DC
:1005400030005645523D00000000002300260029DF
:100550000000000000250028002B0004040404040F
:100560000404040202020202020303030303030160
:100570000204081020408001020408102001020437
:10058000081020002F12002111241FBECFEFD8E049
:10059000DEBFCDBF13E0A0E0B1E0E4EBFDE502C0BB
:1005A00005900D92A631B107D9F727E0A6E1B3E097
:1005B00001C01D92A23DB207E1F712E0C3ECD2E008
:1005C00004C02197FE010E94432BC23CD107C9F70A
:1005D0000E941F130C94CD2E0C94000080911206E3
:1005E000882359F0E09111069FEF980F909312061F
:1005F000E81BF0E0ED5EF94F82810895AF92BF9263
:10060000CF92DF92EF92FF920F931F93CF93DF93DE
:100610006C017B018B01040F151FEB015E01AE180D
:10062000BF08C017D10759F06991D601ED91FC912F
:100630000190F081E02DC6010995892B79F7C5015C
:10064000DF91CF911F910F91FF90EF90DF90CF90AE
:10065000BF90AF900895FC01538D448D252F30E05D
:10066000842F90E0821B930B541710F0CF960895BF
:1006700001970895FC01918D828D981761F0A28DEC
:10068000AE0FBF2FB11D5D968C91928D9F5F9F73B2
:10069000928F90E008958FEF9FEF0895FC01918D68
:1006A000828D981731F0828DE80FF11D858D90E0D5
:1006B00008958FEF9FEF0895FC01918D228D892F72
:1006C00090E0805C9F4F821B91098F73992708955A
:1006D0008EEE96E00E945C0321E0892B09F420E075
:1006E000822F089580E090E0892B29F00E94680312
:1006F00081110C9400000895FC01A48DA80FB92F5E
:10070000B11DA35ABF4F2C91848D90E001968F7339
:100710009927848FA689B7892C93A089B1898C9158
:10072000837080648C93938D848D981306C00288A7
:10073000F389E02D80818F7D80830895EF92FF9271
:100740000F931F93CF93DF93EC0181E0888F9B8DF4
:100750008C8D98131AC0E889F989808185FF15C0AE
:100760009FB7F894EE89FF896083E889F9898081D1
:100770008370806480839FBF81E090E0DF91CF91A0
:100780001F910F91FF90EF900895F62E0B8D10E0C2
:100790000F5F1F4F0F731127E02E8C8D8E110CC031
:1007A0000FB607FCFACFE889F989808185FFF5CF7C
:1007B000CE010E947C03F1CFEB8DEC0FFD2FF11DDC
:1007C000E35AFF4FF0829FB7F8940B8FEA89FB89B9
:1007D00080818062CFCF0F931F93CF93DF938C01E3
:1007E000D0E0C0E0F801EC0FFD1F6491662341F0FA
:1007F0008EEE96E00E949E03892B11F02196F2CF97
:10080000CE01DF91CF911F910F910895682F8EEE49
:1008100096E00C949E03CF93DF93EC01888D8823A0
:10082000B9F0AA89BB89E889F9898C9185FD03C053
:10083000808186FD0DC00FB607FCF7CF8C9185FF38
:10084000F2CF808185FFEDCFCE010E947C03E9CFFE
:10085000DF91CF910895833081F028F4813099F0B1
:100860008230A9F008958730A9F08830C9F084302B
:10087000B1F4809180008F7D03C0809180008F77DC
:1008800080938000089584B58F7784BD089584B5E2
:100890008F7DFBCF8091B0008F778093B00008955B
:1008A0008091B0008F7DF9CF1F93CF93DF93282FD6
:1008B00030E0F901E550FB4F8491F901E159FA4F1D
:1008C000D491F901E55AFA4FC491CC23A9F0162F1F
:1008D00081110E942B04EC2FF0E0EE0FFF1FEF5A66
:1008E000FA4FA591B4918FB7F894EC91111108C00B
:1008F000D095DE23DC938FBFDF91CF911F910895B8
:10090000DE2BF8CFCF93DF9390E0FC01E159FA4F53
:100910002491855A9A4FFC0184918823D1F090E06C
:10092000880F991FFC01E451FC4FA591B491FC0183
:10093000EF5AFA4FC591D49161110EC09FB7F89448
:100940008C91E22FE0958E238C932881E223E8831B
:100950009FBFDF91CF9108958FB7F894EC91E22B70
:10096000EC938FBFF6CF3FB7F894809161039091DD
:100970006203A0916303B091640326B5A89B05C0F0
:100980002F3F19F00196A11DB11D3FBFBA2FA92F0E
:10099000982F8827BC01CD01620F711D811D911D0B
:1009A00043E0660F771F881F991F4A95D1F7089576
:1009B0008F929F92AF92BF92CF92DF92EF92FF926F
:1009C0006B017C010E94B3044B015C01C114D10492
:1009D000E104F104B9F00E94B304681979098A09A5
:1009E0009B09683E73408105910580F321E0C21A9E
:1009F000D108E108F10888EE880E83E0981EA11C5A
:100A0000B11CE4CFFF90EF90DF90CF90BF90AF90FC
:100A10009F908F9008952FB7F89460915D03709127
:100A20005E0380915F03909160032FBF08950E9441
:100A30000B0584E98093BC008091BC0084FDFCCF51
:100A400080E00895CF938093BB000E940B0584E85B
:100A50008093BC008091BC0087FFFCCF8091B900DF
:100A6000887FC0E0883251F0C091B900C87F809182
:100A7000B900887F803329F40E9417058C2FCF910D
:100A800008951092BC0084E48093BC00F7CFCF930C
:100A90008093BB000E940B0584E88093BC0080918A
:100AA000BC0087FFFCCF8091B900887F8831E9F0D6
:100AB0008091B900887F8034C1F0C091B900C87FAF
:100AC0008091B900887F803269F08091B900887F79
:100AD000883441F01092BC0084E48093BC008C2FD9
:100AE000CF9108950E941705FACFC0E0F8CF0E9479
:100AF0000B0584EA8093BC008091BC0087FFFCCF8B
:100B00008091B900887F8830B9F08091B900887FE2
:100B1000803191F08091B900887F883349F48091C9
:100B2000B900887F1092BC0094E49093BC000895B3
:100B30008091B900887F089580E00895CF93C82FF1
:100B40000E940B0584ECC11101C084E88093BC00B5
:100B50008091BC0087FFFCCF8091B900887F8833EB
:100B600051F48091B900887F1092BC0094E4909376
:100B7000BC00CF9108958091B900887FFACF0F9380
:100B80001F93CF93DF93C82F162FD42F10921206E6
:100B9000411101C0D1E08FEF8D0F809314061092A8
:100BA00013060E9477058093130681113CC0CC0F79
:100BB0008C2F0E94470580931306882321F08130F3
:100BC00091F582E030C0812F0E94220580931306A8
:100BD000882321F0813039F583E025C00E94770514
:100BE00080931306882321F08130E9F484E01BC050
:100BF00081E08C0F0E94470580931306882321F023
:100C0000813089F485E00FC005E116E0C0E08091F5
:100C100014068C1325C080E00E949E058093130665
:100C2000813031F486E0DF91CF911F910F910895CB
:100C30008835C9F78091BB00F80181938F01CF5FA0
:100C4000C0931206C0931106DC13E1CF0E94170572
:100C500080931306882339F3813029F787E0E3CFA7
:100C600081E00E949E05809313068130D9F2803581
:100C700009F3D9CFDC0180E0615090F09D91982775
:100C8000E92FEF70F0E0E453FC4F2491E92FE29557
:100C9000EF70F0E0E452FC4FE491822F8E27ECCF0E
:100CA0000895DC012C911196ED91FC91F8948181CD
:100CB000822B81839281322F30959323928382E01D
:100CC00090E00197F1F781818323818380E190E0B7
:100CD0000197F1F790817894E6E6F0E03197F1F72B
:100CE000922381E009F480E00895FC019081018065
:100CF000F281E02D292F209560FF14C0F8948281A5
:100D0000822382838181892B8183A0E1B0E01197C6
:100D1000F1F78281982B928378948AE690E001978C
:100D2000F1F70895F8948281822382838181892B4F
:100D30008183AEE7B0E01197F1F78281982B92831F
:100D4000789486E090E0EBCFDF92EF92FF920F93E2
:100D50001F93CF93DF93EC01D62EE42E08E010E032
:100D6000FF24F39461E08D2D8F2109F460E0CE0122
:100D70000E947506FF0C01501109A1F7E11010C087
:100D8000F894E981FA819181888180958923818312
:100D9000E981FA8192818881809589238283789480
:100DA000DF91CF911F910F91FF90EF90DF90089509
:100DB000EF92FF920F931F93CF93DF938C017B01F0
:100DC00040E065E50E94A406E70188E0E80EF11C1A
:100DD000699140E0C8010E94A406CE15DF05C1F765
:100DE000DF91CF911F910F91FF90EF900895209187
:100DF0006803309169032817390771F490916603ED
:100E000080916703981741F0E0916603F0E0E45E9B
:100E1000FC4F808190E008958FEF9FEF0895089533
:100E2000EF92FF920F931F93CF93DF93DC015C96B9
:100E3000ED90FC905D97E114F10479F481E090E08D
:100E400013969C938E93129790E080E0DF91CF9160
:100E50001F910F91FF90EF9008955196ED91FC91A5
:100E6000529750968C915097982F90950FB75E9609
:100E70002C915E97122F127021FD6095F8942081BD
:100E8000112319F1282B2083E7012197F1F728E09E
:100E9000462F50E0308160FF1AC0382B3083E701C5
:100EA0002197F1F7BA0175956795215089F71123BC
:100EB00081F08081892380830FBF5C968D919C9106
:100EC0000197F1F781E090E0C1CF2923DCCF3923EE
:100ED000E5CF9081892BEFCF209168033091690392
:100EE0002817390771F4809167032091660390E019
:100EF000805C9F4F821B910960E470E00E942F2B61
:100F0000089590E080E0089520916803309169038E
:100F100028173907B9F490916603809167039817F1
:100F200089F0E0916603F0E0E45EFC4F808120915F
:100F3000660330E02F5F3F4F2F7333272093660304
:100F400090E008958FEF9FEF089590E080E008957E
:100F50008EBD00000DB407FEFDCF8EB50895CF9372
:100F6000DF93D82FC62F60E08AE00E9454048D2FB3
:100F700080680E94A8078C2F0E94A80761E08AE081
:100F8000DF91CF910C945404EF92FF920F931F9333
:100F9000CF93DF938C01F62EFC01828180930B04AA
:100FA000838180930A04109213060E947705809330
:100FB000130681111FC084E80E9447058093130621
:100FC000811118C00E94220580931306811112C05E
:100FD000E02EC02FD12F89910E9422058093130605
:100FE000811108C08C2F8E198F15A8F30E94170548
:100FF00080931306DF91CF911F910F91FF90EF9097
:101000000895CF93DF93CDB7DEB760970FB6F8940E
:10101000DEBF0FBECDBF90E1EEE0F1E0DE01119644
:1010200001900D929A95E1F78887FE0133969E0113
:10103000215F3F4F90E080E04191840F980FE217CD
:10104000F307D1F78F87988B60E170E0CE010196AE
:101050000E94C40760960FB6F894DEBF0FBECDBFE6
:10106000DF91CF910895CF93DF93DC01FC0186E0FF
:1010700020E4EB019881992391F06F5F7F4F990FE6
:101080009083815031968111F4CF405D440F1696C4
:101090004C931697CD010796DF91CF910895208349
:1010A000F0CF8F929F92AF92BF92EF92FF920F93E9
:1010B0001F93CF93DF93C62F8C01060F111DF801EC
:1010C0001082D62F78018BE5882E912CA12CB12C83
:1010D000B901CA01A50194010E94CB296F5DF701F6
:1010E00062937F01D150A1F7C1508C2F90E0809581
:1010F0009095800F911FDF91CF911F910F91FF90DD
:10110000EF90BF90AF909F908F900895FC019081D9
:101110000180F281E02DF8948181292F209582238E
:10112000818378943DE7315011F180818923D9F38F
:10113000F8948281822382838181892B81837894B0
:10114000ACEBB3E01197F1F7F894818182238183AE
:10115000A8E8B0E01197F1F78081982381E009F0C9
:1011600080E07894E0E3F3E03197F1F7089580E0D0
:1011700008958F929F92AF92BF92CF92DF92EF929B
:10118000FF920F931F93CF93DF938C01EB0180911C
:101190009107909192070E948608811102C090E009
:1011A0003EC0B80180919107909192070E94D806A5
:1011B00040E06EEB80919107909192070E94A40607
:1011C0008E015E0189E0A80EB11C8090910790907D
:1011D000920788E0C82ED12CF12CEE24E394C401B0
:1011E0000E9451068111FE28EE0CE1E0CE1AD108D2
:1011F000B1F7F801F1928F01EA15FB0531F7809103
:101200009107909192070E948608813041F668E02C
:10121000CE010E943A0691E028852813C0CF892F7D
:10122000DF91CF911F910F91FF90EF90DF90CF90C2
:10123000BF90AF909F908F900895CF93DF93CDB7DD
:10124000DEB729970FB6F894DEBF0FBECDBFBE0143
:101250006F5F7F4F0E94B908882331F08D818F33F3
:10126000A9F020F48F31A1F080E007C08F3521F084
:101270008F37D1F78CE001C08BE029960FB6F89438
:10128000DEBF0FBECDBFDF91CF9108958AE0F5CFCD
:1012900089E0F3CFBF92CF92DF92EF92FF920F934C
:1012A0001F93CF93DF93EC01B62EC72E8D8581114E
:1012B00005C0CE010E94860881110EC01B861D86C6
:1012C0001C8680E0DF91CF911F910F91FF90EF90EE
:1012D000DF90CF90BF90089540E060EFCE010E9474
:1012E000A40601E0E12CD12C11E0CE010E945106B0
:1012F000F82ECE010E94510691E0F91218C08130FB
:1013000099F51134D8F2DB86D11002C081E08D87C7
:101310008B81882399F22396EB2DFC2DCF01089623
:1013200029912193E817F907D9F781E0CBCFEE2D6A
:10133000F0E0F8120FC08B851817A0F4DE01AE0F95
:10134000BF1F13968C91802379F4F12C193008F487
:101350001C87D12EEC0FFD1F8381902F9095892340
:1013600083830AC08113F1CFFE01EE0DF11D83814D
:10137000802B8383FF24F3946F2DCE010E9475068A
:101380001F5F000F11F4E39401E087E08E1508F071
:10139000ACCFB7CFFF920F931F93CF93DF938C0106
:1013A000F62EE0919107F091920713861586148628
:1013B0001286118610861782168215821482138275
:1013C000C0E0B80180919107909192070E944A096C
:1013D000D82F882329F0FC1629F0CF5FFC1688F758
:1013E000D0E008C067E0C8010E943A06F801978182
:1013F0008913F3CF8D2FDF91CF911F910F91FF9024
:101400000895CF92DF92EF92FF92CF93DF9360E83F
:1014100081E00E94AF0720E030E049ED5AE460919E
:101420005706709158068091590690915A060E946D
:101430008B2820E030E049ED53E40E94692A0E94A5
:10144000E22A6B017C01B7018827992786E00E9478
:10145000AF0799278F2D7E2D6D2D87E00E94AF0756
:101460006C2D88E00E94AF0760915B06D0E06111AF
:10147000DFEF80915C06682B80915D06682B8DE123
:101480000E94AF0760915E0664608EE10E94AF0724
:1014900060915F06646086E20E94AF0760E08AE0C8
:1014A0000E94540481E30E94A80780E00E94A807DC
:1014B000C82F61E08AE00E945404C87F80915E06D4
:1014C00063E0803609F465E06C2B81E30E94AF078E
:1014D00080915E066AE0803609F46CE087E30E9442
:1014E000AF076D2F82E20E94AF076D2F83E10E944C
:1014F000AF0760E480E40E94AF0760E081E40E94EF
:10150000AF0780910401813899F061E881E00E9481
:10151000AF0781E8809304016AE070E080E090E02A
:10152000DF91CF91FF90EF90DF90CF900C94D80493
:10153000DF91CF91FF90EF90DF90CF900895EF92E1
:10154000FF920F931F93CF93DF937C01EB010E94D7
:101550000B05609390037093910380939203909393
:10156000930310928C0310928D0310928E031092AD
:101570008F030E94010A80910401813869F061E8BB
:1015800081E00E94AF0781E8809304016AE070E087
:1015900080E090E00E94D80460E08EE00E94AF07F7
:1015A00060E08DE00E94AF0760E08AE00E94540492
:1015B00080E80E94A8078701C8018E199F098C172F
:1015C0009D0734F4F80181918F010E94A807F4CFA0
:1015D00061E08AE00E94540480915B06882311F048
:1015E000CFEFD0E06C2F82E20E94AF078091040120
:1015F0008338A9F060E08CE00E94AF0768E889E0DA
:101600000E94AF0763E881E00E94AF0783E8809300
:1016100004016AE070E080E090E00E94D80482E07B
:1016200090E09093950380939403DF91CF911F9165
:101630000F91FF90EF9008951F93CF93DF93CDB755
:10164000DEB71D8540E062EA71E08AE896E00E941C
:10165000330848856FE676E00E9433082C85222304
:1016600029F041E069EA71E00E943308112329F072
:10167000412F6FEA71E00E943308FC012291216042
:10168000208323E0DC012C93FC01329620EF11969D
:101690002C936CEE76E06E1B7F0B9E01205F3F4F1C
:1016A0004E855F85CF010E94B22BAAE8B6E08FEF8E
:1016B0009FEFFD012D91222391F08227082E829524
:1016C000807F8025092E982F82958F700826869519
:1016D00098278927880F880F880F8025EACF809563
:1016E0008083892F809581838AE896E0909389068C
:1016F00080938806E858F640E09387068091700052
:10170000816080937000DF91CF911F910895FB015C
:1017100001900020E9F73197AF01461B570BDC0120
:10172000ED91FC910280F381E02D09948F929F92BC
:10173000AF92BF920F931F93CF93DF93CDB7DEB7D6
:10174000A1970FB6F894DEBF0FBECDBF19A24230ED
:1017500008F44AE08E010F5D1F4F842E912CB12CAE
:10176000A12CA50194010E94CB29E62FB901CA0141
:10177000EA3004F5E05DD801EE938D01232B242B94
:10178000252B79F790E080E0109729F0BD018EEECF
:1017900096E00E94870BA1960FB6F894DEBF0FBEAD
:1017A000CDBFDF91CF911F910F91BF90AF909F90D0
:1017B0008F900895E95CDFCFCF92DF92EF92FF9296
:1017C000CF93DF9397FF19C06B017C018DE20E94DC
:1017D0000604EC0166277727CB016C197D098E0979
:1017E0009F094AE00E94960B8C0F9D1FDF91CF91BD
:1017F000FF90EF90DF90CF9008954AE0DF91CF9176
:10180000FF90EF90DF90CF900C94960BCF93DF93E7
:10181000BC01990F880B990B0E94DC0BEC0163E76C
:1018200072E08EEE96E00E94870B8C0F9D1FDF9179
:10183000CF910895CF93DF930E94EB03EC0163E710
:1018400072E08EEE96E00E94870B8C0F9D1FDF9159
:10185000CF910895CF93DF93BC0190E080E04AE000
:101860000E94960BEC0163E772E08EEE96E00E9418
:10187000870B8C0F9D1FDF91CF9108954F925F9240
:101880006F927F928F929F92AF92BF92CF92DF9290
:10189000EF92FF92CF936B017C01AC019B010E9400
:1018A000162B65EB71E0811126C046015701E894C3
:1018B000B7F82FEF3FEF4FE75FE7C501B4010E9494
:1018C000162B81110CC02FEF3FEF4FE75FE7C501EB
:1018D000B4010E94252869EB71E0181664F02FEF1F
:1018E0003FEF4FE75FE4C701B6010E94112B1816C6
:1018F0009CF46DEB71E08EEE96E0CF91FF90EF904F
:10190000DF90CF90BF90AF909F908F907F906F901F
:101910005F904F900C94870B2FEF3FEF4FE75FECFA
:10192000C701B6010E94252887FDE3CF20E030E003
:10193000A901C701B6010E942528B12CA12C87FF5F
:1019400008C08DE20E9406045C01F7FAF094F7F8F3
:10195000F0942BEA35EC47EA56E3C701B6010E9442
:10196000FD292B013C010E94E22A6B017C010E94AF
:101970002A289B01AC01C301B2010E94FC292B0162
:101980003C014AE0C701B6010E94960B7C01EA0CBB
:10199000FB1C8EE20E940604E80EF91EC6E0C15050
:1019A00019F120E030E040E251E4C301B2010E94AD
:1019B0008B282B013C010E94E22A4B01B12CA12C67
:1019C0004AE0C501B4010E94960BE80EF91EC5015C
:1019D000B4010E942A289B01AC01C301B2010E94FC
:1019E000FC292B013C01DBCFC701CF91FF90EF9089
:1019F000DF90CF90BF90AF909F908F907F906F902F
:101A00005F904F900895CF93DF93BC018EEE96E0E8
:101A10000E94870BEC0163E772E08EEE96E00E9475
:101A2000870B8C0F9D1FDF91CF9108950F931F930C
:101A3000CF93DF9364E490E080E00E94542961E456
:101A400081E090E00E94542905E316E0C2E0D0E076
:101A5000F80161918F01CE010E9454292196C4356D
:101A6000D105B1F7DF91CF911F910F910895CF93D9
:101A700061EC71E085E396E00E94612B6AEC71E015
:101A800085E496E00E94612BE5E3F6E080ED97E0C7
:101A900091A380A343E353E269ED73E442A353A30C
:101AA00064A375A3C1E0C3A715A614A62FEF3FEF4B
:101AB00037A726A716A228E027A330E330A730EBEC
:101AC00031A722A724E030E031AB20AB28E030E0A2
:101AD00033AB22AB95AB84AB8DEC9CECA0E1B3E4D3
:101AE00086AB97ABA0AFB1AF65E772E08FE696E04B
:101AF0000E94612B109276068CED95E0909378060B
:101B000080937706C093790684E190E090937B06FA
:101B100080937A06C0937C0610927D0610927E0612
:101B200089EA91E00E941A0CCF910C94160DCF9285
:101B3000DF92EF92FF92CF93DF938091CC058734B1
:101B400039F58091CD05803591F48EEC95E00E94B9
:101B50009A2190930901809308018FED91E0DF9124
:101B6000CF91FF90EF90DF90CF900C94030D8634CF
:101B700009F082C28EEC95E00E949A2180342FE118
:101B8000920708F079C29093560680935506E5CFE8
:101B9000833409F04FC08091CD05883469F481E029
:101BA00090E02091CE05213311F090E080E09093F9
:101BB000CA058093C905D1CF803599F48EEC95E0A4
:101BC000FC0101900020E9F7CF018F5C9540409720
:101BD00008F052C26EEC75E085E396E00E94612B3E
:101BE000BCCF863489F48EEC95E0FC010190002096
:101BF000E9F7CF018F5C9540409708F03DC26EEC4D
:101C000075E085E496E0EACF823519F40E94370D3D
:101C1000A4CF833519F40E94160D9FCF863509F0A5
:101C20002BC282E495E00E94EB038CE395E00E94D6
:101C30001A0C93CF8C3409F0A2C08091CD05863464
:101C400009F58EEC95E00E9496216B017C0120E065
:101C500030E048EC53E40E94112B87FD0DC220E0D8
:101C600030E04AE754E4C701B6010E94252887FF07
:101C700003C2C0925706D0925806E0925906F092DD
:101C80005A066BCF833581F48EEC95E00E949A2141
:101C90009C01265031092730310508F0EDC18295AD
:101CA000807F80935E0659CF893459F48EEC95E09D
:101CB0000E949A2121E0892B09F420E020935B0601
:101CC0004CCF853481F48EEC95E00E949A219C01E2
:101CD000255031092430310508F0CEC18450880FD9
:101CE00080935C063ACF823469F48EEC95E00E94D2
:101CF0009A218A30910508F0BFC18295807F809338
:101D00005D062BCF833459F48EEC95E00E949A2126
:101D10008431910508F0B0C1809360061ECF8C34E9
:101D200061F48EEC95E00E949A21892B21F088E0E5
:101D300080935F0612CF80E0FBCF843569F48EEC90
:101D400095E00E949A218D33910508F095C19093FA
:101D500062068093610601CF8F3409F08DC18EEC4D
:101D600095E00E949A219C012F5F3F4F2D33310552
:101D700008F082C19093640680936306EECE8134AE
:101D800009F078C08091CD05803589F48EEC95E01E
:101D9000FC0101900020E9F7CF018F5C9540079787
:101DA00008F06AC16EEC75E08FE696E017CF8634D6
:101DB00011F58EEC95E00E9496216B017C0120E0EC
:101DC00030E046E053E40E94112B87FD55C120E02E
:101DD00030E04EE253E4C701B6010E9425281816F0
:101DE0000CF44AC1C0926B06D0926C06E0926D066C
:101DF000F0926E06B2CE833559F48EEC95E00E94D7
:101E00009A218F30910508F037C180937606A5CED0
:101E1000813449F48EEC95E00E949A2190937806E3
:101E2000809377069ACE873539F48EEC95E00E9440
:101E30009A218093790691CE893449F48EEC95E00D
:101E40000E949A2190937B0680937A0686CE8235F3
:101E500039F48EEC95E00E949A2180937D067DCE28
:101E6000843509F009C18EEC95E00E949A21809397
:101E70007E0673CE833509F0A5C08091CD058334ED
:101E800029F41092C8051092C70567CE803509F075
:101E900051C0C091C705D091C805AEECB5E031E0A6
:101EA00041E08D918823D1F190ED980F3323D9F043
:101EB0009A3058F4082E000C990BC097282F2295C1
:101EC000207FF42FF31B3F2FECCF8154863248F450
:101ED000E82FF0E0E85AFE4F8081082E000C990BA5
:101EE000EDCF80E0EBCF9A3058F4082E000C990B20
:101EF000C097280FFE01E953FB4F20832196E1CFC5
:101F00008154863248F4E82FF0E0E85AFE4F808191
:101F1000082E000C990BEDCF80E0EBCFD093C805D5
:101F2000C093C70586E395E00E94EB03CE010E94B3
:101F30002A0C13CE8234B9F4C091C705D091C805DC
:101F4000EEECF5E0DE01A953BB4F81918D9325E0C6
:101F5000EE3EF207D1F7A096D093C805C093C7050F
:101F600080E395E0E1CF833549F48AE295E00E9471
:101F7000EB038091C7059091C805D9CF893409F04A
:101F80007BC089E696E09F938F93809168068F933C
:101F9000809167068F9385E696E09F938F9386EDF9
:101FA00091E09F938F938EEC95E09F938F930E9487
:101FB000992B8DB79EB70A960FB6F8949EBF0FBEA9
:101FC0008DBFCBCD863409F057C08091CD058134CB
:101FD00069F48EEC95E00E9496216093C1047093A1
:101FE000C2048093C3049093C404B7CD8F3469F4C2
:101FF0008EEC95E00E9496216093BD047093BE0420
:102000008093BF049093C004A8CD843569F48EEC0E
:1020100095E00E9496216093A4047093A504809398
:10202000A6049093A70499CD873469F48EEC95E0CB
:102030000E9496216093A0047093A1048093A2044F
:102040009093A3048ACD8535B9F48EEC95E00E9477
:102050009A21092E000CAA0BBB0B8093A804909325
:10206000A904A093AA04B093AB0485E090E09093F8
:10207000C6048093C50471CD81EE91E070CD1F92AE
:102080000F920FB60F9211242F933F934F935F93AC
:102090006F937F938F939F93AF93BF93EF93FF9330
:1020A0008EEE96E00E947C03FF91EF91BF91AF917D
:1020B0009F918F917F916F915F914F913F912F9160
:1020C0000F900FBE0F901F9018951F920F920FB692
:1020D0000F9211242F938F939F93EF93FF93E0918F
:1020E000FE06F091FF068081E0910407F09105075C
:1020F00082FD1BC09081809107078F5F8F732091B5
:102100000807821741F0E0910707F0E0E251F94F2C
:10211000958F80930707FF91EF919F918F912F915A
:102120000F900FBE0F901F9018958081F4CF1F92D3
:102130000F920FB60F9211242F933F938F939F937B
:10214000AF93BF9380915D0390915E03A0915F0375
:10215000B091600330915C0326E0230F2D3758F5D2
:102160000296A11DB11D20935C0380935D039093A3
:102170005E03A0935F03B09360038091610390912D
:102180006203A0916303B09164030196A11DB11D88
:102190008093610390936203A0936303B0936403FD
:1021A000BF91AF919F918F913F912F910F900FBE53
:1021B0000F901F90189529E8230F0396A11DB11DBC
:1021C000D2CF1F920F920FB60F9211242F933F93ED
:1021D0004F935F936F937F938F939F93AF93BF932F
:1021E000EF93FF93E0916803F0916903309749F012
:1021F000A685B7858585968D91FF14C09C9189230E
:10220000A1F4FF91EF91BF91AF919F918F917F9139
:102210006F915F914F913F912F910F900FBE0F9053
:102220001F9018959C91892361F7A389B4899C918B
:102230008589809589238C93868997890197F1F701
:10224000608D718DA685B785558538E020E0CB017E
:102250000197F1F7822F90E095958795282F4C9163
:10226000452309F02068315091F7868D81FD209536
:102270008091670390E001968F73992730916603F0
:10228000381799F0A0916703B0E0A45EBC4F2C937F
:1022900080936703828D938D0197F1F7A389B489A9
:1022A0008C919589892B8C93ACCF868D8160868F9C
:1022B000F1CF1F920F920FB60F9211242F933F93DD
:1022C0004F935F936F937F938F939F93AF93BF933E
:1022D000EF93FF93E0911A03F0911B03EE0FEF2FA2
:1022E000EE1FFF0BF195E453FE4FE491E093B40031
:1022F000809102019091030120911A0330911B03F8
:10230000280F391F30931B0320931A0320911803C1
:10231000309119032F5F3F4F2A313105A8F43093D4
:10232000190320931803FF91EF91BF91AF919F91F3
:102330008F917F916F915F914F913F912F910F906E
:102340000FBE0F901F90189510921903109218034A
:1023500030911703353059F421ED82272BE1922774
:10236000909303018093020110921703DCCF209118
:1023700001012F5F2830A1F0209301013091160355
:10238000432F50E02091170330FF5CC027FD03C0AE
:102390002F5F209317035595479540931603C3CF9E
:1023A00010920101209100012630F0F4409187063F
:1023B0004423D1F0E0918806F0918906AF014F5F88
:1023C0005F4F50938906409388062081209316031F
:1023D00020918706215020938706222379F137FF29
:1023E000CDCF10921703CACF2150209300012111A5
:1023F0001EC061E088E00E945404809170008E7FCE
:1024000080937000109219031092180310921B030E
:1024100010921A0384ED99E09093030180930201D6
:1024200087E38093000187E0809301019DCF2EE731
:10243000209316032FEF20931703A0CF27E02093BC
:102440000001CDCF31ED83273BE19327909303012A
:102450008093020127FD9FCF109217039CCF10920B
:10246000F1061092F00688EE93E0A0E0B0E08093D1
:10247000F2069093F306A093F406B093F50622E8D3
:1024800031E03093EF062093EE0625EC30E03093F8
:10249000FB062093FA0624EC30E03093FD062093EF
:1024A000FC0620EC30E03093FF062093FE0621EC82
:1024B00030E0309301072093000722EC30E03093A6
:1024C00003072093020726EC30E0309305072093A2
:1024D000040710920707109208071092090710923C
:1024E0000A071092B0071092AF078093B10790933C
:1024F000B207A093B307B093B40784E991E0909337
:10250000AE078093AD071092C4071092C3071092D4
:10251000C6071092C5071092C8071092C7071092FD
:10252000CA071092C9076091CB076E7F6D7F6093D9
:10253000CB076695617081E068278FE00E945404A4
:1025400061E08FE00E948204EEE7F5E0E491E09321
:10255000BD07EAE6F5E0E491F0E0EE0FFF1FEF5A69
:10256000FA4F859194919093BF078093BE0760E0E6
:1025700080E10E9482048091CB0781FD04C061E06C
:1025800080E10E94540480E18093B907EFE7F5E011
:10259000E491E093BA07EBE6F5E0E491F0E0EE0FAA
:1025A000FF1FE95BFA4F859194919093BC0780934C
:1025B000BB0760E084E00E948204E3E7F5E0E49179
:1025C000E0939F07EFE5F5E0E491F0E0EE0FFF1FE9
:1025D000E95BFA4F859194919093A1078093A007AE
:1025E0001092AA071092AC071092AB071092A9079D
:1025F0001092A8071092A7071092A6071092A5079D
:102600001092A4071092A3071092A2078FE997E0F7
:10261000909392078093910710928F0710929007E2
:1026200010928B0789E080938C0781E080938D075F
:1026300080938E0710929E0710929D070895CF9366
:10264000DF93CDB7DEB7C654D1090FB6F894DEBF1D
:102650000FBECDBF789484B5826084BD84B581609F
:1026600084BD85B5826085BD85B5816085BD80915D
:102670006E00816080936E001092810080918100D5
:1026800082608093810080918100816080938100CD
:10269000809180008160809380008091B10084608F
:1026A0008093B1008091B00081608093B0008091F0
:1026B0007A00846080937A0080917A0082608093AF
:1026C0007A0080917A008E7F80937A0080917A00E0
:1026D000806880937A001092C100E091FE06F0912C
:1026E000FF0682E08083E091FA06F091FB061082FB
:1026F000E091FC06F091FD0689E1808310920607C7
:10270000E0910207F091030786E08083E0910007E3
:10271000F0910107808180618083E0910007F09152
:102720000107808188608083E0910007F0910107B4
:10273000808180688083E0910007F09101078081AB
:102740008F7D808385E792E00E94030D82E594E00F
:102750000E94EB038CE494E00E941A0C8DE394E059
:102760000E94EB039E012F5F3F4F19018091CC0720
:102770009091CD07009711F482ED97E0A101481BDD
:10278000590BCA010E94060C90E080E00E944C297F
:10279000843409F0F1C081E090E00E944C2981343A
:1027A00009F0EAC002E010E085E3E82E86E0F82EAA
:1027B000C8010E944C29D7018D937D010F5F1F4FE7
:1027C00004351105A9F761E087E00E94820461E009
:1027D00087E00E94540461E086E00E94820460E089
:1027E00086E00E945404449A459A8091B9008E7FF5
:1027F0008093B9008091B9008D7F8093B90080E209
:102800008093B80084E48093BC0081E0809305014C
:1028100060E08EE00E94820461E08AE00E9482040F
:1028200060E085E00E9482041FB7F8948091650300
:10283000811127C0E5E6F5E08491E9E7F5E09491A0
:10284000E82FF0E0EE0FFF1FE451FC4FA591B4918B
:10285000EC91E92321F461E08AE00E94540461E0F4
:102860008AE00E9482048CB580618CBD8CB5806446
:102870008CBD61E08DE00E94820461E08BE00E94EB
:102880008204809165038F5F809365031FBF0E9460
:10289000010AE0919107F09192071386158614863C
:1028A0001286118610861782168215821482138270
:1028B00010928F071092900701E0B101809191076B
:1028C000909192070E944A09882309F467C067E043
:1028D000C1010E943A0698858913EFCF80918B073A
:1028E000811126C080919107909192070E948608DD
:1028F000B10180919107909192070E94D80640E023
:1029000064EB80919107909192070E94A4068091B8
:102910009107909192070E945106182F809191077C
:10292000909192070E948608111102C000938B07B4
:1029300010918C078981803111F40C94F320C1012E
:102940000E941D098117D8F480918C0780938C0711
:1029500080918F078F5F80938F078981883231F054
:10296000B8F4803119F0823209F0A7CF8091900736
:102970008F5F80939007A1CF0E94370D24CF89816C
:10298000803111F48CE0E2CFC1010E941D09DECF3D
:102990008B3361F3823409F090CFE8CF60918F07D9
:1029A000862F90E0909377038093760370E090E019
:1029B00080E00E94DC0B8BE294E00E941A0CE09015
:1029C0007603F09077039E2D8F2DB3E0EB16F10484
:1029D00014F092E080E090937603809377031E14C6
:1029E0001F040CF0D1C089E080938C07D12CC12C3E
:1029F0000FE5FFE7BF2EAFE1AA2EBFE39B2E80912C
:102A00008F078C151D0409F00CF4A0C06C2DCE01AD
:102A10008D960E94CA0910918C071D3008F11CE0A8
:102A20008DA5803109F1CE018D960E941D09811777
:102A300009F484C0B101CE018D960E94B9088823A3
:102A400009F47CC08DA5803109F478C01B3009F4ED
:102A500079C01C3059F01A3009F076C09D8207C049
:102A60001930F0F619E0DCCF8CE0E1CFBD82809127
:102A70009107909192070E948608BE01635D7F4F87
:102A800080919107909192070E94D80640E06EE4F1
:102A900080919107909192070E94A40640E06B817B
:102AA00080919107909192070E94A40640E06C816A
:102AB00080919107909192070E94A4068DA5803184
:102AC00041F040E06D8180919107909192070E94C2
:102AD000A40680919107909192070E948608BE01FA
:102AE000635D7F4F80919107909192070E94D80675
:102AF00040918B0768E480919107909192070E9422
:102B0000A40664E170E080E090E00E94D804809127
:102B10008B07882331F06AE070E080E090E00E944B
:102B2000D80480919107909192070E948608809125
:102B30008C07811708F4812F80938C07EFEFCE1A52
:102B4000DE0A5DCF0D8393CFAD8291CFEA94EF285B
:102B5000D9F460E0C1010E94CA0948E050E06FE783
:102B600076E0C1010E94492B892B71F088E0F101C8
:102B7000AFE7B6E001900D928A95E1F70E94160D3D
:102B800080E194E00E941A0C10E06E0129E0C20E70
:102B9000D11C80917603909177031817190684F55C
:102BA000612FC1010E94CA097101D7018D917D0178
:102BB000803118F480E30E940604F70131976081A8
:102BC00070E090E080E040E10E94960B80E20E947D
:102BD0000604CE14DF0449F748E050E06FE776E0E2
:102BE000C1010E94492B892B41F41093B80483E062
:102BF00094E00E941A0C1F5FCCCF86EF93E0F9CFD0
:102C000061E089E00E94820460E089E00E9454044F
:102C100064E670E080E090E00E94D80461E088E023
:102C20000E94820461E088E00E94540464E670E03F
:102C300080E090E00E94D80461E089E00E945404A2
:102C400064EF71E080E090E00E94D80461E083E0EE
:102C50000E94820483E28093B00081E08093B100FF
:102C60001092C8071092C7071092C6071092C507A6
:102C70001092C4071092C3078DEC90E09093CA079E
:102C80008093C9079091B907963108F047C025E5B0
:102C900030E03093C4072093C3072BEC30E030932F
:102CA000C6072093C50720E930E03093C80720937A
:102CB000C7072091680084E0983048F031E09E30EA
:102CC00008F430E081E001C0880F3A95EAF7822BE2
:102CD000809368002DE630E0983050F02BE630E02D
:102CE0009E3030F02CE630E0963110F030E020E0FD
:102CF0003093C1072093C007292F30E0983008F0A7
:102D000071C081E001C0880F9A95EAF78093C207ED
:102D10008091C9079091CA070197F1F78091C70781
:102D20009091C807892B49F1E0916803F0916903FC
:102D3000B7E0ED3AFB0709F1309739F0A389B48980
:102D40009C918589809589238C938091CB078E7F78
:102D50008093CB0710926703109266038DEA97E089
:102D60009093690380936803E091C007F091C107D5
:102D700080819091C207892B8083FE0131966F017B
:102D800000E210E08EEE96E00E945C03892B09F4CD
:102D900071C08EEE96E00E943A0320916C03309150
:102DA0006D032115310559F140916A0350916B0370
:102DB000BA016F5F7F4F70936B0360936A03455353
:102DC0005A4FDA018C932150310930936D032093CF
:102DD0006C03232BB9F60E94970D10926B0310928F
:102DE0006A03D0CF9E3040F42850310981E001C001
:102DF000880F2A95EAF78ACF2E503109F7CF8E3700
:102E000049F48093CB05E1E0F0E0F0936B03E093AD
:102E10006A03B8CF20916A0330916B038D3029F497
:102E200025533A4FD9011C92D6CF26343105A8F646
:102E30002115310509F4A6CFA9014F5F5F4F5093CB
:102E40006B0340936A0325533A4FF9018083433063
:102E5000510509F097CF8091CC05833509F092CFC9
:102E60008091CD05823409F08DCF10936D030093CE
:102E70006C0388CF8091C9059091CA05892B11F008
:102E80000C940C20E3EE6E2EE1E07E2E42E06DEF1E
:102E900082E40E94BF050E94EE02082F0E94EE020B
:102EA00010E0102F0027080F111D0132110514F535
:102EB0000115110509F5102FF12C88248A9462E080
:102EC000462E512CF11608F028C20E94EE022091E5
:102ED0008E0430918F04853BA9F425303105A0F58F
:102EE00080930E0421E030E030938F0420938E0411
:102EF000F394E8CF00E210E0402F6FEF82E40E94ED
:102F0000BF05D9CF823681F425303105E8F4232B73
:102F100019F435EB30930E0442E640930F045092BF
:102F20008F0440928E04E4CF843271F42115310570
:102F300011F00C94F92080930E0481E090E09093BE
:102F40008F0480938E04D4CF2E37310528F0109251
:102F50008F0410928E04CCCF2115310549F2909147
:102F60000E04953B09F073C1A9014F5F5F4F509369
:102F70008F0440938E04225F3B4FD9018C934630DF
:102F8000510571F48091130490E0982F88272091C7
:102F90001204820F911D90930D0480930C04A8CF0E
:102FA0004730510508F4A4CF80910C0490910D0492
:102FB00008964817590708F49BCF80911004853074
:102FC000F1F480911104813061F480910B0486301A
:102FD00041F480910A04843269F48091030480935F
:102FE000BB048091100480930B04809111048093A2
:102FF0000A04ADCF8131A9F78092BC04F2CF8130B1
:1030000081F780911104873061F7009128040093C3
:10301000B20480912B0490E09093AD048093AC04B3
:103020000023F9F260911404709115048091160444
:103030009091170428EE33E040E050E00E94CB2945
:10304000CA01B90120E831E541E050E00E94CB29F6
:1030500060939C0470939D0480939E0490939F04BE
:1030600080911C0490E09093970480939604809143
:103070001D0490E0909399048093980480911E041D
:1030800090E090939B0480939A04E0901B048E2D13
:1030900090E09093910480939004B0901A048B2D4B
:1030A00090E09093930480939204A09018049090E1
:1030B0001904A0929404909295048091C504909173
:1030C000C604009709F473C001979093C6048093D7
:1030D000C5048091080190910901892B09F481CFE1
:1030E00085E295E00E94EB039F92AF921F92BF9200
:1030F0001F92EF927F926F92DF92CF920E94762B77
:10310000B6018EEE96E00E94870B80919B048F9310
:1031100080919A048F93809199048F938091980461
:103120008F93809197048F93809196048F93E3EF10
:10313000F1E0FF93EF93DF92CF920E94762BB601DE
:103140008EEE96E00E94870B6091A4047091A50416
:103150008091A6049091A7040E943E0C8CE20E94EC
:1031600006046091A0047091A1048091A204909142
:10317000A3040E943E0C8CE20E9406046091A80405
:103180007091A9048091AA049091AB040E94DC0B79
:103190008CE20E9406048091AC049091AD040E94E0
:1031A0002A0C0FB6F894DEBF0FBECDBF1ACF8FEF3B
:1031B000800F843008F08DCF60912C0470912D0425
:1031C00080912E0490912F040E942C2820E836E94B
:1031D00048E15BE40E94692A6093A0047093A10413
:1031E0008093A2049093A304609130047091310401
:1031F00080913204909133040E942C2820E836E913
:1032000048E15BE40E94692A6093A4047093A504DA
:103210008093A6049093A7040350023008F059CF7E
:10322000609138047091390480913A0490913B0484
:1032300028EE33E040E050E00E9462292093A80489
:103240003093A9044093AA045093AB0442CF943224
:1032500009F04ECE843209F470CE8D3009F448CE98
:10326000A9014F5F5F4F50938F0440938E04225FFC
:103270003B4FD9018C938A3009F03ACE425F5B4FC5
:10328000FA01108243E050E063E072E081E194E0F3
:103290000E94682B892B21F480E00E94010857CE00
:1032A00043E050E067E072E081E194E00E94682B27
:1032B000892B11F484E0F1CF43E050E06BE072E041
:1032C00081E194E00E94682B892B11F483E0E5CF23
:1032D00043E050E06FE072E081E194E00E94682BEF
:1032E000892B11F481E0D9CF43E050E063E172E033
:1032F00081E194E00E94682B892B11F482E0CDCF0C
:1033000043E050E067E172E081E194E00E94682BC5
:10331000892B09F01CCE85E0C0CF1111B7CD0E94DA
:103320000B058090060490900704A0900804B090CC
:103330000904681579058A059B0560F189288A28A2
:103340008B2809F003C10E940B056093060470935B
:103350000704809308049093090410928F0410923C
:103360008E04E0900404F0900504E114F10409F4E3
:10337000F4C0F1E0EF16F10409F4FDC02FEFE21AFA
:10338000F20A33E0E316F10408F02DC1F0920504CF
:10339000E09204040E940B050091FF0310910004C9
:1033A000209101043091020460177107820793078E
:1033B000B0F11091FE038091A8049091A904A0910E
:1033C000AA04B091AB0460E0893E9340A105B10529
:1033D0006CF48091B204833009F00AC18091AC048E
:1033E0009091AD04049708F403C1612F86E00E9418
:1033F000540460E087E00E9454040E940B056C5066
:103400007E4F8F4F9F4F6093FF0370930004809314
:1034100001049093020481E0811B8093FE0380915C
:10342000940390919503029719F5E0E0F5E08491FB
:10343000E4E7F5E01491E0E6F5E00491002309F4F7
:103440003EC181110E942B04E02FF0E0EE0FFF1F20
:10345000E95BFA4FA591B491EC911E2309F42FC1B9
:1034600068E082E10E94AF071092950310929403E6
:103470008091610690916206892B09F0BFC080910E
:10348000FC039091FD0301969093FD038093FC0350
:1034900020916706309168062817390740F080911F
:1034A000C7059091C8058F3F910509F020F410924F
:1034B000FD031092FC038091FC039091FD03892B86
:1034C00009F058C36BE172E088E993E00E94612B38
:1034D0008091960390919703019690939703809320
:1034E000960385E3882E86E0982ECE018D967C018A
:1034F0009CEDA92E91E0B92E27E0422E512C3EE101
:10350000632E32E0732ED40150968C91882309F4F7
:103510008DC21DA6803309F0C7C165E376E0C701FF
:103520000E94612B25E3821626E0920631F066E4C4
:1035300072E088E993E00E94562BB70188E993E096
:103540000E94562B3FEF831A930ADDCF0E940B0592
:1035500068537F4F8F4F9F4FF8CE88E0EEE1F1E048
:10356000D10101900D928A95E1F768E070E0C10108
:103570000E94C40703CF8091550690915606B0E093
:10358000A0E04091A8045091A9046091AA04709110
:10359000AB0484179507A607B7071CF586E0809350
:1035A00003049091BB04891709F4E8CE9CE2E6E29B
:1035B000F1E0D10101900D929A95E1F78987FE0122
:1035C00033969E01255D3F4F80E09191190F810F49
:1035D0002E173F07D1F71BA78CA76CE270E0C6013E
:1035E000C7CF83E0DCCF1092050410920404D2CE42
:1035F00060E086E00E945404612FFCCE0E940B051F
:103600002091610630916206809090039090910322
:10361000A0909203B090930350ED850E57E0951E55
:10362000A11CB11C48EE53E0249FF001259FF00D32
:10363000349FF00D11248E0E9F1EA11CB11C861606
:103640009706A806B90668F480918C0390918D03C3
:10365000A0918E03B0918F03892B8A2B8B2B09F4B9
:103660000ECF8091AC049091AD04892B09F405C173
:1036700050E040E060919C0470919D0480919E0414
:1036800090919F046151710981099109620F731F23
:10369000841F951F0E94CB292091060130910701BC
:1036A0006217730761F07093070160930601209120
:1036B0006306309164066217730709F4E0CE0E9436
:1036C0000B05009188031091890320918A033091A2
:1036D0008B03601771078207930708F47FC08091FE
:1036E00080039091810390937F0380937E03809168
:1036F0008203909183039093810380938003809150
:103700008403909185039093830380938203809137
:10371000860390918703909385038093840380911F
:103720000501B0E48B9FC001112480937C0080913F
:103730007A00806480937A0080917A0086FDFCCFC5
:103740006091780080917900982F862F909387035D
:103750008093860360917E0370917F0320918003A4
:1037600030918103620F731F209182033091830394
:10377000620F731F2091840330918503620F731FC2
:10378000680F791F90E080E00E942A2822E538EB3C
:103790004EE451E40E948B2820E030E040EA50E4FF
:1037A0000E94692A0E94E22A4B017093BA04609336
:1037B000B90485EF94E00E94EB03C4010E94060C5B
:1037C0000E940B05605F784D8F4F9F4F6093880379
:1037D0007093890380938A0390938B030E940B0557
:1037E00000917A0310917B0320917C0330917D033B
:1037F000601771078207930708F432C2809178033B
:1038000090917903892B09F417C404EB14E0812CFF
:10381000912C540180917603909177038816990634
:103820000CF002C2682DCE018D960E94CA0981114A
:10383000B8C160E070E08EEF92EC0E94DB2AD80104
:103840006D937D938D0180EF94E00E94EB03C501A1
:10385000B4010E94DC0B64E372E08EEE96E00E94FD
:10386000870BF8013297808191810E94060CBFEF8F
:103870008B1A9B0AAB0ABB0ACDCF80908C03909029
:103880008D03A0908E03B0908F0381149104A10446
:10389000B10409F414CF0E940B05681579058A0557
:1038A0009B0508F0ECCD0BCF813399F48091970301
:1038B0008F93809196038F937F926F92FF92EF92F6
:1038C0000E94762B0F900F900F900F900F900F90FB
:1038D00029CE823301F580919B048F9380919A04C5
:1038E0008F93809199048F93809198048F93809106
:1038F00097048F93809196048F93E1E2F2E0FF9317
:10390000EF93FF92EF920E94762B0FB6F894DEBFF2
:103910000FBECDBF07CE833371F46091A4047091C4
:10392000A5048091A6049091A704870125E047E0B3
:103930000E941C21F7CD843349F46091A00470915A
:10394000A1048091A2049091A304EFCF8533A9F440
:103950008091AB048F938091AA048F938091A904E6
:103960008F938091A8048F9380E392E09F938F932D
:10397000FF92EF920E94762BC8CF863331F480916C
:10398000AD048F938091AC0496CF873381F420915E
:10399000AE043091AF04FDE0F29FC001F39F900DA3
:1039A0001124B2010E942F2B7F936F9385CF883310
:1039B00049F48091B1048F938091B0048F93BF92AA
:1039C000AF927CCF893331F48091BA048F93809188
:1039D000B904F4CFE091B804F0E0813441F08234CE
:1039E00071F48091B804E1E0F0E0E81BF109EE0F1A
:1039F000FF1FEC54FB4F81818F938081DFCF833495
:103A000049F46091C1047091C2048091C304909103
:103A1000C4048BCF843409F085CD6091BD047091CE
:103A2000BE048091BF049091C0047FCF28E933E0A9
:103A3000D9010D900020E9F79D0129593340EAE9A9
:103A4000F3E08FEF9FEFAF01485953404217530700
:103A5000BCF44191042E000C550B542F44278427AD
:103A6000952748E050E0BC01880F991F77FF04C0FC
:103A7000B1E28B27B0E19B2741505109A1F7E3CF79
:103A8000F901E856FC4F4AE2408341E1E5E0F3E00A
:103A9000D60101900D924A95E1F7FC01EF2FFF2727
:103AA000E295EF70EC0DFD1D4081F901E756FC4FEA
:103AB000408341E1E5E0F3E0D60101900D924A95A3
:103AC000E1F7E92FEF70EC0DFD2DF11D4081F901BB
:103AD000E656FC4F408341E1E5E0F3E0D60101907A
:103AE0000D924A95E1F7FC01A4E0F695E795AA95B9
:103AF000E1F7EF70EC0DFD2DF11D9081F901E55618
:103B0000FC4F908391E1E5E0F3E0D60101900D9246
:103B10009A95E1F78F70F601E80FF11D8081F901A8
:103B2000E456FC4F8083F901E356FC4F8AE0808322
:103B300022563C4FF901108208E913E0D8010D909C
:103B40000020E9F78D01095913408FE095E00E94AC
:103B5000EB0368E973E08EEE96E00E94870B8DE040
:103B60000E940604B8016F5F7F4F88E993E00E94CE
:103B70009F0AA5CD6FEF70E088EC94E00E949F0A49
:103B80008BE195E00E941A0C1092C8051092C705AF
:103B900085E195E00E94EB0390E080E00E942A0C12
:103BA0008ECDB601CE018D960E94B908882309F406
:103BB00040CE2A8130E0322F2227330F330F330FCC
:103BC0006981E8E06E9FB0011124262B372B8DA56B
:103BD0008031C1F4688570E08F81AB01481B5109C9
:103BE000CA019695982F8827979587950E942F2B25
:103BF0006051710953E0220F331F5A95E1F7207885
:103C0000260F371F213854EE35070CF412CEB901B8
:103C1000330F880B990B0E942C2820E030E040E005
:103C20005CE30E948B2809CE0E940B05605F784DF3
:103C30008F4F9F4F60937A0370937B0380937C0335
:103C400090937D0381E090E0209178033091790397
:103C5000232B11F090E080E0909379038093780318
:103C60000E940B050091720310917303209174035D
:103C700030917503601771078207930708F4CCC170
:103C80008091AC049091AD04049708F4C5C1809173
:103C90006F06882309F4C0C18091760618160CF0CF
:103CA000BBC1809187068111B7C188ED94E00E9465
:103CB0001A0C7E01EDE2EE0EF11C60916B06709124
:103CC0006C0680916D0690916E06870124E048E0B5
:103CD0000E941C2166E372E0C6010E94612BB701BD
:103CE000C6010E94562B68E472E0C6010E94562B62
:103CF00084E994E00E941A0CB6018DEA97E00E94D4
:103D0000870BB6018EEE96E00E94870B64EF71E0A0
:103D100080E090E00E94D80481E090917C069111AF
:103D200080E01F928F9380E692E09F938F93DF92C3
:103D3000CF920E94762B8DE794E00E941A0CB60178
:103D40008DEA97E00E94870BB6018EEE96E00E9406
:103D5000870B64EF71E080E090E00E94D80484EC6F
:103D600094E00E941A0C60E088E00E94540464EF22
:103D700071E080E090E00E94D8044090A40450904C
:103D8000A5046090A6047090A7042091A00430912F
:103D9000A1044091A2045091A30426962CAF3DAFFC
:103DA0004EAF5FAF26978090A8049090A904A09092
:103DB000AA04B090AB048091770690917806092E02
:103DC000000CAA0BBB0B0F900F900F900F900F9051
:103DD0000F900091790610E088159905AA05BB059A
:103DE00014F001E011E020916E0330916F0350E078
:103DF00040E062E0C7010E9451082091AC0430917C
:103E0000AD0450E040E062E0CE018F960E94510880
:103E10002091B4043091B5042C593F4F032E000C6F
:103E2000440B550B62E0CE01C1960E9451082091CF
:103E3000B9043091BA04032E000C440B550B62E018
:103E4000CE01C3960E945108809170039091710336
:103E5000009709F04DC120E030E044E353E426969A
:103E60006CAD7DAD8EAD9FAD26970E94FD2920ECF7
:103E70003FEF49E358E40E948B280E94DB2A9B0114
:103E8000AC0164E0C6010E94510823968FAF2397CE
:103E900027969FAF2797A301920160E070E084EB23
:103EA00092E40E94FC2920EC3FEF49EB58E40E9489
:103EB0008B280E94DB2A9B01AC0164E0CE01CD96E9
:103EC0000E945108782E692E8BE694E09F938F9381
:103ED000FF92EF92A8E2B0E8A50194010E94812927
:103EE00020E137E240E050E00E9462295F934F9367
:103EF0003F932F9327963FAD27973F9323964FAD40
:103F000023974F936F927F9286E792E09F938F93D0
:103F10000F931F931F9282EA91E09F938F9380915A
:103F200076068F938FE696E09F938F930E941C0BEB
:103F300060917E060FB6F894DEBF0FBECDBF209114
:103F40006E0330916F03662371F0062E000C770B21
:103F5000C9010E941B2B892B31F4A1E0B0E0B09382
:103F60007103A09370032F5F3F4F30936F03209333
:103F70006E038091700390917103812C912C5401F8
:103F8000892B39F580907A0690907B06092C000CDD
:103F9000AA08BB0880917D061816DCF40E948621D1
:103FA00020917D06622F022E000C770B0E942F2B92
:103FB000AC01922F27FD9F5F9595491B510997FDF5
:103FC0005395052E000C660B770B840E951EA61ECE
:103FD000B71E84EB94E00E94EB034AE0C501B401F4
:103FE0000E94960B8BEA94E00E941A0C0E940B052B
:103FF0002B013C01A8EEB3E0A50194010E948129A8
:10400000460E571E681E791E40927203509273032B
:10401000609274037092750380E090E0892B11F434
:104020000C94C0160E946803882311F40C94C016E7
:104030000E9400000C94BD16809191079091920708
:104040000E94860840E06CEC809191079091920765
:104050000E94A40640918B0764E48091910790919F
:1040600092070E94A40680918D07882399F1E09120
:104070008C07E9508EEE882E82E0982EE33038F4DB
:10408000F0E0EE0FFF1FEE5AFE4F8080918080918E
:104090008E07882331F180918B07811122C00E9405
:1040A0000B052B013C01092C000CAA08BB088091D0
:1040B0009107909192070E945106813059F00E9419
:1040C0000B05681979098A099B0964157505860528
:1040D000970568F30E940B0568517C4F8F4F9F4FE7
:1040E000A9CDB401990C880B990B0E94D804F2CF8A
:1040F000181619060CF03DCF47E050E06FE676E069
:10410000C6010E94B821F60101900020E9F7CF0115
:1041100020917606422F022E000C550B5F932F93B1
:1041200027E634E03F932F931F9224E02F930197CB
:104130009F938F930E94CF21809170039091710380
:104140000FB6F894DEBF0FBECDBF8130910529F5C3
:10415000DF92CF928FE892E09F938F931F921F92EE
:104160001F9282EA91E09F938F93809176068F93BE
:104170008FE696E09F938F930E941C0B80917003B3
:1041800090917103019690937103809370030FB621
:10419000F894DEBF0FBECDBFECCE8230910529F47E
:1041A000DF92CF9289EB92E0D7CF039709F0E1CE6F
:1041B000DF92CF9285ED92E09F938F931F921F9293
:1041C0001F9282EA91E09F938F93809176068F935E
:1041D0008FE696E09F938F930E941C0B10927103C1
:1041E00010927003D4CF1D3010F00C94A4140C94D2
:1041F000C2142E37310510F00C94A7170C94AF178A
:1042000084E991E09093AE078093AD0780916803B5
:10421000909169038D5A974071F4E091C007F09135
:10422000C10790818091C207809589238083109275
:104230006903109268030895EF920F931F93CF9331
:10424000DF93E80134E047FD34E1042E000C550B08
:1042500057FF03C0519541955109E32E022F242F9A
:10426000AE010E94D923CE01DF91CF911F910F9112
:10427000EF9008958F929F92AF92BF92CF92DF926C
:10428000EF92FF92CF93DF93EC01688179818A816D
:104290009B81611571058105910521F464E279ED39
:1042A0008BE597E02DE133EF41E050E00E94622979
:1042B00049015A019B01AC01A7EAB1E40E9481299E
:1042C0006B017C01ACEEB4EFA50194010E948F2933
:1042D000DC01CB018C0D9D1DAE1DBF1DB7FF03C0C2
:1042E0000197A109B04888839983AA83BB839F77EC
:1042F000DF91CF91FF90EF90DF90CF90BF90AF9084
:104300009F908F9008950E943A2108958AE091E04D
:104310000E943A210895B0E0A0E080930A019093B2
:104320000B01A0930C01B0930D0108956627772728
:104330000C943825FC0188279927E8942191203294
:10434000E9F3293010F02E30C8F32B3241F02D3232
:1043500039F4689404C00E94C721820F911D2191F5
:1043600020532A30C0F31EF4909581959F4F0895F5
:10437000FB01DC014150504048F005900D920020B7
:10438000C9F701C01D9241505040E0F708957AE00E
:10439000979F902D879F802D910D11240895AEE059
:1043A000B0E0E5EDF1E20C94A2290D891E898F8918
:1043B000988D2EE02C831A83098397FF02C080E03A
:1043C00090E801979E838D83AE01455E5F4F698DB6
:1043D0007A8DCE0101960E94FF214D815E8157FDAD
:1043E0000AC02F813885421753070CF49A01020F37
:1043F000131FF80110822E96E4E00C94BE29ABE066
:10440000B0E0E5E0F2E20C9494297C013B018A01E2
:10441000FC0117821682838181FFC8C1CE010196FB
:104420005C01F7019381F30193FD859193FF8191E5
:104430003F01882309F453C1853239F493FD8591F6
:1044400093FF81913F01853229F4B70190E00E94EA
:104450009727E7CF912C212C312CFFE1F31538F071
:104460008B3211F190F4803209F1833229F137FC5B
:104470003CC020ED280F2A3050F536FE20C08AE0DF
:10448000989E200D1124922E06C08D3291F080331B
:1044900071F7689430F8F30193FD859193FF819152
:1044A0003F018111DACF21C0689431F8689432F865
:1044B000F2CF689433F8EFCF689434F8ECCFEAE0A9
:1044C0002E9E200D1124222E689435F8E4CF8E32D2
:1044D00029F436FC04C1689436F8DDCF8C3619F423
:1044E000689437F8D8CF8836B1F2982F9F7D9554CD
:1044F0009330E0F08336A1F18337C1F1833509F0C1
:1045000063C02801F2E04F0E511CF801C080D18039
:10451000692D70E036FC02C06FEF7FEFC6010E948C
:1045200081274C01689437F882010AC00C5F1F4F45
:10453000FFE3F98388248394912C6501E89437F88C
:1045400033FE2DC0522C8114910471F5552009F4CD
:1045500068CFB70180E290E00E9497275A94F6CF87
:10456000F801808189830E5F1F4FE4CF2801F2E0BC
:104570004F0E511CF801C080D180692D70E036FCCF
:1045800002C06FEF7FEFC6010E948C274C018201B1
:10459000D5CFB70180E290E00E9497272A94281493
:1045A000190409F0B0F7CECFF60137FC859137FE3C
:1045B00081916F01B70190E00E94972751105A94A2
:1045C000F1E08F1A9108BFCF843619F0893609F0CF
:1045D00077C0F80137FE6BC0608171818281938161
:1045E0000C5F1F4FF32DFF763F2E97FF09C090956C
:1045F0008095709561957F4F8F4F9F4F689437F8E6
:104600002AE030E0A5010E94C727C82ECA188C2CCA
:10461000432C36FE0CC0E89440F8C91440F434FE34
:1046200005C032FC03C0F32DFE7E4F2E892C44FEC4
:1046300095C0FE01EC0DF11D8081803309F087C02B
:10464000242D297E422E842D8870582E43FC95C03F
:1046500040FE8FC09C2C821418F42C0C922C9818BD
:1046600044FE91C0B70180E390E00E94972742FE8C
:1046700009C088E790E041FE02C088E590E0B701FC
:104680000E949727C91408F48AC0CA94D12C9FEFBE
:10469000C91AD90ACA0CDB1CF60182916F01B70155
:1046A00090E00E949727AC14BD04B1F74FCF608112
:1046B0007181072E000C880B990B0E5F1F4F92CF54
:1046C000D32CE894D4F82AE030E0853739F1232D53
:1046D000297FD22E8F3601F148F48835A9F0F701F1
:1046E000868197812B96E2E10C94B029803749F0BE
:1046F0008837A9F7D4FE02C06894D2F820E130E0F0
:104700000DC06894D4F8F6CF34FE03C0822F8660C3
:10471000D82E20E132E002C028E030E0F801D7FED8
:104720000FC060817181828193810C5F1F4FA50151
:104730000E94C727C82ECA183D2CE89437F867CFC7
:104740006081718190E080E00E5F1F4FF0CF42FCEE
:1047500002C0839478CF8394839475CF842D867818
:1047600009F471CFF6CFB70180E290E00E9497275D
:1047700083948214C0F3512C73CF522C5818821496
:1047800008F46ECFF8CF842D867809F47BCF8BE2C6
:1047900041FE80E247FC8DE2B70190E071CFB701A6
:1047A00080E390E00E9497279A946CCF8FEF9FEF61
:1047B00099CFA9E0B0E0EFEDF3E20C949A296A01F9
:1047C000F22EB02E102FFBE3AF2EA01608F41BE341
:1047D0001F5F012F27E0AE014F5F5F4F0E948826C9
:1047E000BC018981982F9970913009F43FC09BE2F8
:1047F000E1FC04C09E2D9170E0FC3AC05E2D50712A
:10480000E82FE87083FF46C084E0911101C083E087
:10481000EF2DE81B8F1508F0E0E0D6018E2F20E287
:10482000552351F1992329F0D6019C93C601019695
:104830006C0196012D5F3F4FE2FE24C08EE4D6014D
:104840008C9391E411969C93119712968C93D901B5
:104850008E2F90E281111BC0E20FF32FF11D108209
:104860008EEF9FEF2996ECE00C94B6299DE2C6CF1F
:1048700090E2C4CF2D9381508111FCCFCE0ED11C7C
:10488000E0E0D0CF8EE6D6018C9391E6DBCF9D930E
:104890008150E0CF482F447082FF3DC084E09111E9
:1048A00001C083E08F1510F4EF2DE81BD6018E2F89
:1048B00020E2552309F1992329F0D6019C93C601E2
:1048C00001966C0196012D5F3F4FE2FE1BC089E40B
:1048D000D6018C938EE411968C93119786E41296F0
:1048E0008C93D9018E2F90E2882309F4B5CF9D9344
:1048F0008150FACF2D9381508111FCCFCE0ED11C67
:10490000E0E0D9CF89E6D6018C938EE611968C93A0
:10491000119786E6E4CF9B0177FF02C030E020E0EC
:10492000A1E0B0E0911102C0B0E0A0E0F901319641
:10493000AE0FBF1F8B2C912CBB2009F461C054011A
:10494000EFEFAE1ABE0AAA0DBB1DFA161B0619F030
:1049500014F04F2D4A1B511188C0E3FC59C0760159
:10496000A42FB0E2A1114FC0C40ED11C992309F4A9
:104970005BC040E0D6011196F60190836D0155238E
:1049800009F448C0012F060F9A81582F507184FFF7
:1049900003C0913309F4015010160CF047C00930E0
:1049A00008F008E0EEE2FE2E5B01A01AB1088501D6
:1049B0009194819491082F3F320729F4D601FC92FB
:1049C000F60131966F016217730794F1021713070E
:1049D0007CF5DB01A21BB30BAA24A394B12CAC0E73
:1049E000BD1EAA0DBB1D11968C9121503109D60117
:1049F000119628153905F4F0F60180836D01DBCF9F
:104A0000B12CA12CA0CFF701B1937F01A150AACF67
:104A10009111B0CFD601942F50E302C05D93915015
:104A20009111FCCFC40ED11C40E0ACCF01E0BACF55
:104A300080E3DBCF6217730731F4963388F4953344
:104A400011F4552369F0F6018083FD01842F90E273
:104A5000811108C0A40FB11D1C9290E080E002CF2C
:104A600081E3F1CF91938150F3CF911183CF8ACF1E
:104A7000B0E0A0E0EEE3F5E20C949A295C017B0142
:104A80006115710519F0DB018D939C9385010F5F12
:104A90001F4FF501D0818D2F90E00E9460276C019F
:104AA000892BB9F5DD32B9F50F5F1F4FD50111968E
:104AB000DC91C1E05801F1E0AF1AB10843E050E0E9
:104AC00060E770E0C5010E946927892B69F56801DC
:104AD00082E0C80ED11C45E050E06BE670E0C601F4
:104AE0000E946927892B21F4680197E0C90ED11C27
:104AF000E114F10419F0D701CD92DC9260E070E08E
:104B000080E89FEFC111FFC060E070E080E89FE7A0
:104B1000FAC05801BBCFDB3229F485010E5F1F4F6D
:104B2000F501D181C0E0C6CF43E050E068E670E017
:104B3000C5010E946927892BE9F0F80110E000E027
:104B400020E030E0A9015F01B0ED8B2E8D0E89E0F1
:104B50008815C8F19C2E689491F88C2F8870C2FF3C
:104B600016C0811102C00F5F1F4F3196D501DC9135
:104B7000C92DE9CFE114F10429F00E5F1F4FF701B1
:104B80001183008360E070E080EC9FE7BCC0882365
:104B900011F001501109A5E0B0E00E9481299B01AC
:104BA000AC01220F331F441F551F280D311D411D1D
:104BB000511D283999E93907490799E15907A8F2A0
:104BC000C6609C2ED2CFAEEF8A1206C0C3FD3CC099
:104BD0009C2E689493F8C9CFDF7DD534A9F58081E8
:104BE0008D3239F4C061DF011296818162E070E09C
:104BF00006C0DF018B32C1F3119661E070E0805393
:104C00005D01A61AB70A8A30F8F4E0E8CE16ECE0A7
:104C1000DE065CF4B601660F771F660F771FC60EBF
:104C2000D71ECC0CDD1CC80ED11C5D01FFEFAF1AE6
:104C3000BF0A8C9180538A30A8F1C4FF03C0D1947D
:104C4000C194D1080C0D1D1DC1FF09C0E114F10470
:104C500031F081E0A81AB108D701AD92BC92CA0127
:104C6000B9010E942A28C370C33009F490584B013F
:104C70005C0120E030E0A9010E942528882309F486
:104C800040C0CFE9D0E017FF05C01195019511098B
:104C9000C7E8D0E06E01B8E1CB1AD10880E2E82E77
:104CA000F12C0FC0D501B1CFFE0125913591459171
:104CB00054910E191F09C501B4010E948B284B01A4
:104CC0005C01D501C4010E151F0574F72497F594F6
:104CD000E794CC16DD06A9F78A2F880F8B2F881F43
:104CE0008F3F49F020E030E0A901C501B4010E94E6
:104CF0002528811106C082E290E09093D10780932D
:104D0000D007C501B401CDB7DEB7ECE00C94B629ED
:104D1000283008F027E03327DA01990F311D87FD8D
:104D2000916000966105710539F432602E5F3D9304
:104D300030E32A95E1F708959F3F30F08038710500
:104D4000610509F03C5F3C5F3D93913008F080685D
:104D5000911DDF93CF931F930F93FF92EF92192F23
:104D6000987F9695E92F96959695E90FFF27E35042
:104D7000FF4F99273327EE24FF24A701E701059071
:104D80000894079428F4360FE71EF81E491F511D9A
:104D9000660F771F881F991F0694A1F70590079447
:104DA00028F4E70EF81E491F561FC11D770F881FF4
:104DB000991F661F0694A1F70590079428F4F80E32
:104DC000491F561FC71FD11D880F991F661F771FC8
:104DD0000694A1F70590079420F4490F561FC71FAA
:104DE000D81F990F661F771F881F0694A9F7849113
:104DF0001095177041F0D695C79557954795F7943C
:104E0000E7941A95C1F7E3EAF0E0689415901591DC
:104E100035916591959105907FE27395E118F10ABE
:104E2000430B560BC90BD009C0F7E10CF11E431F11
:104E3000561FC91FD01D7EF4703311F48A95E6CF3A
:104E4000E894015030F0080F0AF40027021708F424
:104E5000202F2395022F7A3328F079E37D932A952A
:104E6000E9F710C07D932A9589F606949795679582
:104E7000379517951794E118F10A430B560BC90B98
:104E8000D00998F023957E9173957A3308F070E3FA
:104E90007C932013B8F77E9170617D9330F08395F9
:104EA00071E37D9370E32A95E1F71124EF90FF9071
:104EB0000F911F91CF91DF91992787FD90950895CC
:104EC00091110C94F828803219F089508550C8F758
:104ED0000895FB01DC014150504088F08D918134F0
:104EE0001CF08B350CF4805E659161341CF06B35E1
:104EF0000CF4605E861B611171F3990B0895881B99
:104F0000FCCFFC010590615070400110D8F78095EE
:104F100090958E0F9F1F0895FC0161507040019085
:104F20000110D8F7809590958E0F9F1F08950F93CD
:104F30001F93CF93DF93182F092FEB018B8181FDF6
:104F400009C01FEF0FEF812F902FDF91CF911F919D
:104F50000F91089582FF14C02E813F818C819D8125
:104F6000281739073CF4E881F981CF01019699832C
:104F7000888310838E819F8101969F838E83E3CFE8
:104F8000E885F985812F0995892BA1F3DACFFA01FC
:104F9000AA27283051F1203181F1E8946F936E7F78
:104FA0006E5F7F4F8F4F9F4FAF4FB1E03ED0B4E069
:104FB0003CD0670F781F891F9A1FA11D680F791FAA
:104FC0008A1F911DA11D6A0F711D811D911DA11DBB
:104FD00020D009F468943F912AE0269F11243019CB
:104FE000305D3193DEF6CF010895462F4770405D66
:104FF0004193B3E00FD0C9F7F6CF462F4F70405D15
:105000004A3318F0495D31FD4052419302D0A9F76F
:10501000EACFB4E0A6959795879577956795BA9569
:10502000C9F700976105710508959B01AC010A2E2F
:1050300006945795479537952795BA95C9F7620F06
:10504000731F841F951FA01D08950E94672808F4F0
:1050500081E00895E89409C097FB3EF4909580950F
:10506000709561957F4F8F4F9F4F9923A9F0F92F2E
:1050700096E9BB279395F695879577956795B795AC
:10508000F111F8CFFAF4BB0F11F460FF1BC06F5F92
:105090007F4F8F4F9F4F16C0882311F096E911C0A4
:1050A000772321F09EE8872F762F05C0662371F0C5
:1050B00096E8862F70E060E02AF09A95660F771FD9
:1050C000881FDAF7880F9695879597F90895990FB5
:1050D0000008550FAA0BE0E8FEEF16161706E807C2
:1050E000F907C0F012161306E407F50798F0621BE3
:1050F000730B840B950B39F40A2661F0232B242BB8
:10510000252B21F408950A2609F4A140A6958FEFD6
:10511000811D811D08950E949E280C9412290E94D1
:10512000042938F00E940B2920F0952311F00C94EB
:10513000FB280C94012911240C9446290E94232950
:1051400070F3959FC1F3950F50E0551F629FF001DA
:10515000729FBB27F00DB11D639FAA27F00DB11DF3
:10516000AA1F649F6627B00DA11D661F829F22277C
:10517000B00DA11D621F739FB00DA11D621F839F03
:10518000A00D611D221F749F3327A00D611D231FD9
:10519000849F600D211D822F762F6A2F11249F5727
:1051A00050409AF0F1F088234AF0EE0FFF1FBB1F2A
:1051B000661F771F881F91505040A9F79E3F5105E9
:1051C00080F00C94FB280C9446295F3FE4F3983E52
:1051D000D4F3869577956795B795F795E7959F5F93
:1051E000C1F7FE2B880F911D9695879597F9089525
:1051F00099278827089597F99F6780E870E060E015
:1052000008959FEF80EC089500240A94161617065F
:1052100018060906089500240A94121613061406A7
:1052200005060895092E0394000C11F4882352F00A
:10523000BB0F40F4BF2B11F460FF04C06F5F7F4FC2
:105240008F4F9F4F089557FD9058440F551F59F0A9
:105250005F3F71F04795880F97FB991F61F09F3F63
:1052600079F087950895121613061406551FF2CF8C
:105270004695F1DF08C0161617061806991FF1CFDC
:1052800086957105610508940895E894BB27662703
:105290007727CB0197F90895F999FECF92BD81BD8B
:1052A000F89A992780B50895262FF999FECF1FBA4D
:1052B00092BD81BD20BD0FB6F894FA9AF99A0FBE3F
:1052C00001960895052E97FB1EF400940E947929FB
:1052D00057FD07D00E94CB2907FC03D04EF40C9455
:1052E000792950954095309521953F4F4F4F5F4F0D
:1052F000089590958095709561957F4F8F4F9F4F42
:1053000008950E94ED29A59F900DB49F900DA49F34
:10531000800D911D11240895B7FF0C9481290E94DE
:105320008129821B930B08952F923F924F925F9297
:105330006F927F928F929F92AF92BF92CF92DF92A5
:10534000EF92FF920F931F93CF93DF93CDB7DEB70A
:10535000CA1BDB0B0FB6F894DEBF0FBECDBF09949E
:105360002A88398848885F846E847D848C849B84F5
:10537000AA84B984C884DF80EE80FD800C811B8103
:10538000AA81B981CE0FD11D0FB6F894DEBF0FBE32
:10539000CDBFED010895A1E21A2EAA1BBB1BFD0192
:1053A0000DC0AA1FBB1FEE1FFF1FA217B307E40704
:1053B000F50720F0A21BB30BE40BF50B661F771F5C
:1053C000881F991F1A9469F760957095809590953C
:1053D0009B01AC01BD01CF010895A29FB001B39F15
:1053E000C001A39F700D811D1124911DB29F700DEE
:1053F000811D1124911D08955058BB27AA270E9492
:10540000142A0C9412290E94042938F00E940B29B6
:1054100020F039F49F3F19F426F40C9401290EF47E
:10542000E095E7FB0C94FB28E92F0E94232958F311
:10543000BA17620773078407950720F079F4A6F579
:105440000C9445290EF4E0950B2EBA2FA02D0B01DC
:10545000B90190010C01CA01A0011124FF27591BB9
:1054600099F0593F50F4503E68F11A16F040A22FBF
:10547000232F342F4427585FF3CF46953795279530
:10548000A795F0405395C9F77EF41F16BA0B620B2F
:10549000730B840BBAF09150A1F0FF0FBB1F661F76
:1054A000771F881FC2F70EC0BA0F621F731F841FB9
:1054B00048F4879577956795B795F7959E3F08F0DF
:1054C000B0CF9395880F08F09927EE0F97958795A1
:1054D00008950E947D2A0C9412290E940B2958F0ED
:1054E0000E94042940F029F45F3F29F00C94FB2826
:1054F00051110C9446290C9401290E94232968F328
:105500009923B1F3552391F3951B550BBB27AA277C
:1055100062177307840738F09F5F5F4F220F331FB6
:10552000441FAA1FA9F335D00E2E3AF0E0E832D07E
:1055300091505040E695001CCAF72BD0FE2F29D081
:10554000660F771F881FBB1F261737074807AB0753
:10555000B0E809F0BB0B802DBF01FF2793585F4FC8
:105560003AF09E3F510578F00C94FB280C944629A4
:105570005F3FE4F3983ED4F3869577956795B795AA
:10558000F7959F5FC9F7880F911D9695879597F9B5
:105590000895E1E0660F771F881FBB1F621773072E
:1055A0008407BA0720F0621B730B840BBA0BEE1F43
:1055B00088F7E09508950E94E22A6894B1110C944E
:1055C000462908950E942B2988F09F5798F0B92FFB
:1055D0009927B751B0F0E1F0660F771F881F991F28
:1055E0001AF0BA95C9F714C0B13091F00E9445295C
:1055F000B1E008950C944529672F782F8827B85F6C
:1056000039F0B93FCCF3869577956795B395D9F77F
:105610003EF490958095709561957F4F8F4F9F4F89
:1056200008950E94672808F48FEF08950E94672864
:10563000880B990B0895AA1BBB1B51E107C0AA1F39
:10564000BB1FA617B70710F0A61BB70B881F991F23
:105650005A95A9F780959095BC01CD01089597FBC7
:10566000072E16F4009407D077FD09D00E941B2B5B
:1056700007FC05D03EF4909581959F4F0895709555
:1056800061957F4F0895EE0FFF1F0590F491E02D77
:105690000994FB01DC0104C08D910190801921F473
:1056A00041505040C8F7881B990B0895FB01DC015D
:1056B0000D900020E9F7119701900D920020E1F77D
:1056C0000895FB01DC0101900D920020E1F708959F
:1056D000FB01DC014150504030F08D910190801968
:1056E00019F40020B9F7881B990B0895AEE0B0E0DB
:1056F000ECE7FBE20C94A2290D891E8986E08C83DD
:105700001A8309838FEF9FE79E838D83AE01475EE7
:105710005F4F6F89788DCE0101960E94FF212F8106
:105720003885020F131FF80110822E96E4E00C94C6
:10573000BE29AEE0B0E0EFE9FBE20C94A42985E0DD
:105740008C838B899C899A838983AE01495E5F4FE4
:105750006D897E89CE0101960E94692D2E96E2E028
:105760000C94C029AEE0B0E0E8EBFBE20C94A22977
:105770008C01FA0186E08C831A83098377FF02C0CB
:1057800060E070E8615071097E836D83A901BF01FB
:10579000CE0101960E94FF214D815E8157FD0AC016
:1057A0002F813885421753070CF49A01020F131FFB
:1057B000F80110822E96E4E00C94BE2920FD09C069
:1057C000FC0123FD05C022FF02C073836283518365
:1057D0004083089544FD17C046FD1DC0DB01FC0158
:1057E000AA0FBB1FEE1FFF1F1094D1F76A0F7B1F7C
:1057F0008E1F9F1F660F771F881F991F620F711DD5
:10580000811D911D089533E0660F771F881F991F32
:105810003150D1F7F3CF34E0F7CF0F931F93CF93ED
:10582000DF938C01C8010E94792EEC0197FD08C01E
:105830000E946027892BB1F7B801CE010E94B52ED6
:10584000CE01DF91CF911F910F9108958F929F927A
:10585000AF92BF92EF92FF920F931F93CF93DF937C
:105860008C01D62F7A01B22E0E94792E9C0133270B
:105870002B32310529F02D323105A9F46894B7F89F
:10588000D15061F480E0DF91CF911F910F91FF9093
:10589000EF90BF90AF909F908F900895C8010E94A5
:1058A000792E97FDEFCFCB2DCD7F2B2D2073F9F4E3
:1058B0008033E9F4AA24AA94AD0E89F0C8010E94AD
:1058C000792E97FD0CC0282F2F7D283561F4C264F6
:1058D000D25029F0C8010E94792E97FF08C0812C70
:1058E000912C54011BC0B6FE2BC0C260DA2D812C56
:1058F000912C540120ED280F283028F1C4FD09C057
:105900002A3008F1C6FF05C02F7D3FEE320F36303A
:10591000C8F0B8010E94B52EC1FFB4CFC7FF08C0C0
:10592000B094A09490948094811C911CA11CB11CF3
:105930002C2FB501A401C7010E94DE2B81E0A3CF6B
:10594000C261D4CF27504C2FC501B4010E94EA2B6D
:105950004B015C01C260D15009F3C8010E94792E4D
:1059600097FFC8CFD9CFA0E2B0E0E9EBFCE20C94FE
:1059700099295C01962E7A01CE0101966C0180E294
:10598000F60111928A95E9F7F501B381890130E0BA
:1059900020E0712C812CA0E041E050E0F801B3FD43
:1059A0008591B3FF8191982F8F01811107C010E07D
:1059B00000E0C801A096EDE00C94B5298E3519F4ED
:1059C0002115310541F1A21713064CF48D3549F12B
:1059D0008D3229F4811006C0882483941DC088204C
:1059E00009F464C0E92FE695E695E695EC0DFD2DEA
:1059F000F11D892F8770BA0101C0660F8A95EAF7F9
:105A00008081682B6083791651F0971510F49F5FA1
:105A1000E9CF9150E7CFA1E02F5F3F4FBFCF812C5F
:105A2000FBCF882019F08E8180628E83AA2359F0E3
:105A3000F6019E012F5D3F4F8081809580833196D6
:105A4000E217F307C9F788248394C5010E94792ED1
:105A500097FD16C0E82FE695E695E695EC0DFD2D31
:105A6000F11D208130E0AC014770552702C035950B
:105A700027954A95E2F720FD06C0B5010E94B52E94
:105A8000882069F094CFE114F10429F0F7018083B4
:105A9000C70101967C019A94812C9110D6CFE11414
:105AA000F10409F486CFF701108283CFE82FE69541
:105AB000E695E695EC0DFD2DF11D982F9770BA0136
:105AC00001C0660F9A95EAF79081692B6083782E62
:105AD000A3CFB0E0A0E0EFE6FDE20C9497296C01C3
